:10000000022505543A00563A002222022903E4FF51
:10001000FE120389600C0FEF70010E09E970F20AFD
:0900200080EF22022BE0D2002245
:10002B00022142EC4D6011E8497017ED33EC3304BB
:10003B00600DE4FCFFFEFD22E933E8330470F802A7
:10004B00027E12024958046009E4CC248150062830
:10005B005009020288284003020285C0E0EB4A7077
:10006B0044B98006D0E0FB020274EF4E701CBD80D9
:10007B0008EBFFEAFEE9FD80EBE98DF0A4FEE5F06D
:10008B00020117E9CDF9EAFEEBFFEF89F0A4FCE5DD
:10009B00F0CE89F0A42EFFE435F0CD89F0A42DFE2F
:1000AB00E435F08067EF4E7005BD80D780C3EF8BD2
:1000BB00F0A4ACF0EE8BF0A42CFCE435F0F8EF8A56
:1000CB00F0A42CE5F038FCE433CB8DF0A42CFCE54C
:1000DB00F03BF8EE8AF0A42CFCE5F038F8E433CFD3
:1000EB0089F0A42CFCE5F038CF3400CE89F0A42F96
:1000FB00FFE5F03EFEE433C98DF0A42EFEE5F039AA
:10010B00CD8AF0A42FFFE5F03EFEE43DFD33D0E0B9
:10011B00FB50070BBB000F020288EC2CFCEF33FFEC
:10012B00EE33FEED33FD020260020288EC5D0460EB
:10013B0005E85904700302027E120249580460F666
:10014B00EC4860F2EC7004FDFEFF22C860DB2481FA
:10015B00C85009C398600250060202859850CAF530
:10016B0082E9294B4A7005AB8202027475F0007C60
:10017B001A7880C3EF9BEE9AED99400DC3EF9BFF6E
:10018B00EE9AFEED99FDE842F0DC23ACF0D0E0FFF7
:10019B00D0E0FED0E0FDAB8220E7101BEB60BAECA9
:1001AB002CFCEF33FFEE33FEED33FD020260E80370
:1001BB00F830E705C0F075F000EF2FFFEE33FEEDE2
:1001CB0033FD40B830E7C280AA75F020800E75F081
:1001DB0010800575F0087D007E007F003392D530CE
:1001EB00D5031204A0EC334010EF33FFEE33FEEDDA
:1001FB0033FDEC33FCD5F0ED22E5F0247EA2D513D4
:10020B00CC92E7CDCEFF22EDD2E7CD33EC3392D5B6
:10021B0024814006E4FFFEFDFC22FCE4CFCECDCCD6
:10022B0024E0501174FF80EDC3CC13CCCD13CDCE95
:10023B0013CECF13CF0470F030D5DE0204A0E9D279
:10024B00E7C933E833F892D5EDD2E7CD33EC33FC85
:10025B005002B2D522EC30E7100FBF000C0EBE00DF
:10026B00080DBD00040BEB6014A2D5EB13FCED9253
:10027B00E7FD2274FFFCFDFEFF22E480F8A2D5749B
:10028B00FF13FC7D80E480EFE709F608DFFA804678
:10029B00E709F208DFFA803E88828C83E709F0A336
:1002AB00DFFA8032E309F608DFFA8078E309F20817
:1002BB00DFFA807088828C83E309F0A3DFFA806415
:1002CB0089828A83E0A3F608DFFA805889828A83C1
:1002DB00E0A3F208DFFA804C80D280FA80C680D48B
:1002EB00806980F28033801080A680EA809A80A893
:1002FB0080DA80E280CA803389828A83ECFAE493C5
:10030B00A3C8C582C8CCC583CCF0A3C8C582C8CC52
:10031B00C583CCDFE9DEE7800D89828A83E493A372
:10032B00F608DFF9ECFAA9F0EDFB2289828A83EC5F
:10033B00FAE0A3C8C582C8CCC583CCF0A3C8C582DC
:10034B00C8CCC583CCDFEADEE880DB89828A83E414
:10035B0093A3F208DFF980CC88F0EF60010E4E60BA
:10036B00C388F0ED2402B4040050B9F582EB2402EB
:10037B00B4040050AF23234582239002E373BB01E7
:10038B000689828A83E0225002E722BBFE02E32227
:10039B0089828A83E49322BB010CE58229F582E5ED
:1003AB00833AF583E0225006E92582F8E622BBFE6C
:1003BB0006E92582F8E222E58229F582E5833AF502
:1003CB0083E49322BB010689828A83F0225002F7D1
:1003DB0022BBFE01F322F8BB010DE58229F582E574
:1003EB00833AF583E8F0225006E92582C8F622BB52
:1003FB00FE05E92582C8F222EF8DF0A4A8F0CF8C80
:10040B00F0A428CE8DF0A42EFE22BC000BBE00293A
:10041B00EF8DF084FFADF022E4CCF875F008EF2FF0
:10042B00FFEE33FEEC33FCEE9DEC984005FCEE9DAD
:10043B00FE0FD5F0E9E4CEFD22EDF8F5F0EE8420C9
:10044B00D21CFEADF075F008EF2FFFED33FD40072A
:10045B00985006D5F0F222C398FD0FD5F0EA22C2D0
:10046B00D5EC30E709B2D5E4C39DFDE49CFCEE303E
:10047B00E715B2D5E4C39FFFE49EFE120415C3E457
:10048B009DFDE49CFC800312041530D507C3E49F4B
:10049B00FFE49EFE22C3E49FFFE49EFEE49DFDE489
:1004AB009CFC22EB9FF5F0EA9E42F0E99D42F0E8BE
:1004BB009C45F022E8600FECC313FCED13FDEE132B
:1004CB00FEEF13FFD8F122BB010DE58229F582E582
:1004DB00833AF5830207985007E92582F802050253
:1004EB00BBFE07E92582F80207A4E58229F582E520
:1004FB00833AF58302050EE6FC08E6FD08E6FE08E6
:10050B00E6FF22E493FC740193FD740293FE7403E3
:10051B0093FF22E6FB08E6F908E6FA08E6CBF82299
:10052B00E493F8740193F9740293FA740393FB2226
:10053B00ECF608EDF608EEF608EFF622ECF0A3ED7C
:10054B00F0A3EEF0A3EFF022D083D082E493F60871
:10055B00740193F608740293F608740393F674040B
:10056B0073A8828583F0D083D08212058312058312
:10057B00120583120583E473E493A3C583C5F0C509
:10058B0083C8C582C8F0A3C583C5F0C583C8C5821F
:10059B00C822D083D082F8E4937012740193700D4B
:1005AB00A3A393F8740193F5828883E47374029385
:1005BB00B5F0067403936860E9A3A3A3A380D8EFF7
:1005CB004E6012EF60010EEDBB010B89828A83F046
:1005DB00A3DFFCDEFA2289F05007F709DFFCA9F054
:1005EB0022BBFEFCF309DFFCA9F022E709F608DFCA
:1005FB00FA807BE9D39850F3E92FF9E82FF819E744
:10060B0018F6DFFA8068E709F208DFFA806080E30A
:10061B0088828C83E709F0A3DFFA8052E309F6089E
:10062B00DFFA804AE9D398500EE92FF9E82FF81931
:10063B00E318F2DFFA8037E309F208DFFA802F883C
:10064B00828C83E309F0A3DFFA802389828A83E01B
:10065B00A3F608DFFA801789828A83E493A3F20852
:10066B00DFF9800A89828A83E0A3F208DFFA0207A6
:10067B000880B180F980A580C680DC80F180738012
:10068B0010808380E98087808780D980E180BC805F
:10069B0073D3E998EA9C5039E92FF582EA3BF5834D
:1006AB00E82FF8EC3BFC0582D5820215831582E41A
:1006BB0093C8C582C8CCC583CC0582D5820215836D
:1006CB001582F0C8C582C8CCC583CCDFD9DED780F4
:1006DB002E89828A83ECFAE493A3C8C582C8CCC561
:1006EB0083CCF0A3C8C582C8CCC583CCDFE9DEE7D9
:1006FB00800D89828A83E493A3F608DFF9ECFAA9CB
:10070B00F0EDFB22D3E998EA9C5038E92FF582EA09
:10071B003BF583E82FF8EC3BFC0582D58202158371
:10072B001582E0C8C582C8CCC583CC0582D58202B0
:10073B0015831582F0C8C582C8CCC583CCDFDADE41
:10074B00D880BC89828A83ECFAE0A3C8C582C8CC66
:10075B00C583CCF0A3C8C582C8CCC583CCDFEADE89
:10076B00E8809C809888F08E83EF60010E4E608D40
:10077B00ED2402B404005085F582EB2402B404008E
:10078B0050E123234582AB832390067C73E0FCA3CB
:10079B00E0FDA3E0FEA3E0FF22E2FC08E2FD08E29D
:1007AB00FE08E2FF228E2C8F2D8C2E8D2FEF242214
:1007BB00F531E43EF530EF240EF533E43EF532EF40
:1007CB00241AFFE43EFEE52F2408FDE4352EFC122F
:1007DB002094E4FCFD12119A12110612119A1205C3
:1007EB001EE4FCFDEB252FFFEA352E1210FE121135
:1007FB009A12050278101204BF7883121184787D47
:10080B00F608EFF6F47002EEF46003020C0012111E
:10081B007DA3A3E0FEA3E064504E600302092C12FB
:10082B00117012102DFF9000E112117AE0FFA3E07E
:10083B009000E5CFF0A3EFF0E4787AF6787AE6FF54
:10084B00C39405503B121170121077EF1210C212A5
:10085B00102DFFC31204AE702212117DE0FEA3E037
:10086B00FF787AE6FD121139E0FAA3E0FBEFB5034E
:10087B000AEEB50206787CA6058005787A0680BC60
:10088B00787AE66405703C12109AA3E030E134E408
:10089B0008F6787BE6FFC39405501EEF1210C212C8
:1008AB00102D121147700D787BE608F612105A7452
:1008BB0001F08005787B0680D9787BE664057003B0
:1008CB00020C00787CE6D394044003020C00E53163
:1008DB002404121028FF74FF7B0012114A500E12D1
:1008EB0010BFF58312056C00000000803412109AC3
:1008FB00E0FAA3E0FB30E20D1210BFF58312056C9A
:10090B000000000022EB30E120121057E0FF6401E1
:10091B006022EF601F1210C1F58312056C000000FE
:10092B00007B051211170211B612109AA3E020E4F6
:10093B0003020C0012109AE0FCA3E0FDEC54F01340
:10094B0013543FFF7E00787FEEF608EFF6C3E52FDA
:10095B009F7882F6E52E9E18F6121057E0B4090028
:10096B004003020BF9900977F828287302099202C9
:10097B000992020A23020A65020BF9020B02020B0F
:10098B001A020B84020BCAED30E17612109AA3E027
:10099B0020E46E12117012102DFF787CE6FB121002
:1009AB00C2F58312117AE0FEA3E0FFEB121139EED0
:1009BB00F0A3EFF0EB12105A7401F0E5312404129E
:1009CB0010281210A612101FFFEB1211521211ACAD
:1009DB00EB1210D21211ACE42FFFEE34FA12110FFE
:1009EB0078A912053BD2AF7D1C7C007F127E0012D2
:1009FB0011B61210CE12102D12103A7402F0020B17
:100A0B00F91210BFF58312056C000000007B051274
:100A1B0011171211B6020BF9787CE61210B3F5839D
:100A2B00C083C082121079C00012112ED000121098
:100A3B00F9D082D083121021121085A3E030E0028E
:100A4B008023121024121068C31204AE6003020B31
:100A5B00F91210577403F0020BF9121024121085BF
:100A6B00A3E030E03A787CE6FA1210B312102D2492
:100A7B000112110CEA1210B3120C01787CE6FB1276
:100A8B00105A7404F07D147C007F117E001211B695
:100A9B001210CE12102D12103A7405F0020BF978C9
:100AAB0082E618467003020BF9787CE61210B3F558
:100ABB0083C083C082121079C00012112ED0001295
:100ACB0010F9D082D083120547787CE6FB120C120A
:100ADB00787FE6FC08E6FD787CE6FBE4F539AF2D84
:100AEB00AE2C120C1E787DA60608A607787C121079
:100AFB00DE741EF0020BF9120FFAFFEB12106CC32F
:100B0B001204AE6003020BF9787CE6FF020BE3786C
:100B1B007CE61210B3F583C083C082121079C0003B
:100B2B0012112ED0001210F9D082D0831210211284
:100B3B001085A3E030E02E1210B212102D1210A669
:100B4B00120C01121024121068C31204AE787C70C0
:100B5B000BE6FF12105A7409F0EF807C12105974D7
:100B6B0008F0020BF9121024121068C31204AE70B5
:100B7B007D1210577407F08075787CE61210B3F570
:100B8B0083C083C082121079C00012112ED00012C4
:100B9B0010F9D082D083121021121085A3E030E01F
:100BAB004D1210B212102D1210A6F583120547121A
:100BBB000C12787CE6FF12105A7409F0EF801912B0
:100BCB000FFAFFEB12106CC31204AE7021787CE6A7
:100BDB00FF12105A7409F0EF12105AE4F0EF1210D2
:100BEB00C2F58312056C0000000078A8760178A886
:100BFB00E66002E4F622F5831205477D147C007F44
:100C0B00107E001211B6227D147C007F107E001224
:100C1B0011B6228E348F358B38E538B40503020FAD
:100C2B005AE539703FE5352422FFE43534FEEF2DCC
:100C3B00F53DEE3CF53CFAA93D7B01C001E538756D
:100C4B00F02DA42419F9740035F0A801FC7D01D016
:100C5B00017E007F14120363121861121854FF12E5
:100C6B0018D0801085343C85353D1218D01218549D
:100C7B00FF121861F5831205477895121887754A8C
:100C8B0028754BA4120FEC600678B27601804912DE
:100C9B001889754A28754BA9120FEC603B78B21274
:100CAB001887754A28754BAD120FF3600678957649
:100CBB00028025121889754A28754BB4120FF36000
:100CCB00028011121889754A28754BBA122694E9BD
:100CDB004A4B60047895760178B2E6604512188924
:100CEB00754A28754BBD12269489828A83E5824505
:100CFB0083602FE4F67895760374072582F582E4FA
:100D0B003583F583E0FFB43104C2028006EFB430C3
:100D1B0002D202A2029200120026A20292A6A20204
:100D2B0092A47895E6FF64016008EF640360030208
:100D3B000E2A7BFF7A2D792412000E7889A60608DD
:100D4B00A6077BFF7A2D799812000E788DEEF608A8
:100D5B00EFF6788A267988F718E63E19F7E53970A9
:100D6B000378B0F612194978897A2D792412187004
:100D7B00788DE6FE08E6FF1218DFFCED788A7A2DF7
:100D8B0079981218C1788812189F788D120F627A91
:100D9B002879C512270B78A57C007D64120F887803
:100DAB00A57C007D6412192EEB7C00245B120FB620
:100DBB007A2879CE12270B789E7C037DE8120F8858
:100DCB00789E7C037DE812192E7C00745B2B120F2E
:100DDB00B67A2879D712270BE53B2436FFE4353A50
:100DEB00FE2002091219047A2879E08007121904EF
:100DFB007A2879F112270B7888120FDA121861F51D
:100E0B0083C083C082121910C00012191CE4FCFDB0
:100E1B00D0001218B4D082D083120547020F5E782F
:100E2B0095E664026003020F5A7BFF7A32795812FF
:100E3B00000E788BEEF608EFF6788F767508763025
:100E4B0024307888F6EE347518F6E539700378B0EF
:100E5B00F612191CC394E8EE940378935007A60678
:100E6B0008A607800576030876E8121949788B7A6D
:100E7B003279581218701218E8FE1218DFFCED08C0
:100E8B007A3279CD1218C1789412189F788F120F7D
:100E9B00627A2879FA12270B7894120FDA1218E873
:100EAB007891F608A607020F367891E6FE08E6FF62
:100EBB00C3789096EE18964003020F5EC308E69F28
:100ECB00FF18E69EFE7893F608EFF6D394E8EE94BF
:100EDB000340061876030876E81219491218F5FF35
:100EEB007891E6FC08E624CDF974323CFA7BFF12CC
:100EFB0018DFA805FC7D011203631218F5FF2436D9
:100F0B00FDE43EFCE53B2DF582E53A3CF583E4F050
:100F1B00EF2414FDE43EFCAB38AF3BAE3A1214D4D5
:100F2B001218F5789226F618EE36F6121861F5833C
:100F3B00C083C082121910C0001218F5FFE4FCFD2B
:100F4B00D0001218B4D082D083120547020EB4E43D
:100F5B00FEFF2212191C22E6FE08E6FF7B017A0136
:100F6B00795B75430A121FE6E53B2436FFE4353AFD
:100F7B00FE75430175440175455B7BFF22E6FE0858
:100F8B00E6FF1204157B017A01795B75430A121F88
:100F9B00E67B017A01795B12000EAB07745B2BF5D4
:100FAB0082E43401F583742EF00B22AF05F9EC3497
:100FBB0001FA7B0175430A121FE6E53B2436FFE479
:100FCB00353AFE75430175440175455B7BFF22E69F
:100FDB002414FD18E436FCAB38AF3BAE3A1214D4F4
:100FEB0022122694E94A4B22122694E94A4B22E517
:100FFB00312408F582E43530F583E0FCA3E0FDA352
:10100B00E0FEA3E0FF787CE6FB75F02DA42412F53F
:10101B0082E43400F583120547E5312408F582E4B8
:10102B003530F583E0FCA3E0FDA3E0FEA3E0222432
:10103B0001FFE43EFEE43DFDE43CFCEB75F02DA42A
:10104B00240AF582E43400F583120547787CE675B3
:10105B00F02DA42418F582E43400F58322FF787C6C
:10106B00E675F02DA4240AF582E43400F583E0F84C
:10107B00A3E0F9A3E0FAA3E0FB22FF787CE6FB7583
:10108B00F02DA42412F582E43400F583120547E514
:10109B0031240CF582E43530F583222401FFE43E44
:1010AB00FEE43DFDE43CFCEB75F02DA42406F5823B
:1010BB00E4340022787CE675F02DA42400F582E45C
:1010CB00340022787CE6FB75F02DA4240AF582E42B
:1010DB00340022E675F02DA42417F582E43400F5D4
:1010EB008322E53C2404F582E4353BF58322EB2F88
:1010FB00FFEA3EFEED39FDEC38FC22120502EF242F
:10110B0006FFE43EFEE43DFDE43CFC227F047D143F
:10111B007C007E002275F02DA42416F582E43400A9
:10112B00F583227881E6FE08E6FFE4FCFD2275F0EC
:10113B002DA42404F582E43400F58322FFE4FBFAAA
:10114B00F9F8C30204AEEF75F02DA42412F582E476
:10115B00340022E0FFA3E0853C82853B83A3A3CF31
:10116B00F0A3EFF022E533240CF582E435322212A2
:10117B00054785318285308322AB07AA061205020B
:10118B00EF2BFFEE3AFE22788712053B7887227809
:10119B008312053B788322F582E4353DF583020506
:1011AB0047F58312054778A90205028E348F358CDB
:1011BB00368D378B38753909753AC4E53A2422F5E3
:1011CB003CE43539F53BE53A240EF53EE43539F58B
:1011DB003DE5386405702E853C82853B83F0A37416
:1011EB0050F09000E512115E1210ED12056C00002C
:1011FB000000E53C24081210F112056C0000000001
:10120B009000E18047E538C39405400302135385F2
:10121B003C82853B83E4F0A37450F0E5381211391E
:10122B0012115EE5381210D212102DFF1210ED12B2
:10123B000547E5381210B312102DFFE53C240812B8
:10124B0010F1120547E5381210C2F58312102FFF6B
:10125B00788B12053BE53725E025E04534FEE53577
:10126B00FFE53C240C1210F1EEF0A3EFF0E53C246B
:10127B000E1210F17404F0A3E4F0E53C24101210EC
:10128B00F1E4F0A3F0E53C24121210F1E4F0A3F02A
:10129B00E537641C4536701AE53C2414FFE4353BF6
:1012AB00A807FC7D017BFF7A83798E7E007F081275
:1012BB000363788B120502E53E24101211A2902CC9
:1012CB009512050EE53E240C1211A2E53A241AFFE5
:1012DB00E43539FEE5372408FDE43536FC1220945D
:1012EB00E4FCFD12119212110612119212051EE46A
:1012FB00FCFDEB2537FFEA35361210FE1211921268
:10130B00050278101204BF7887121184788FF608C3
:10131B00EFF6F4FFEEF4FEE53C24101210F1EEF0C4
:10132B00A3EFF0788B1205028F4C8E4B8D4A8C49B4
:10133B00754D0685364E85374FAF3AAE391219507B
:10134B00E5381211207404F022EF240EF529E43E47
:10135B00F528E47877F6852982852883E0FEA3E0DB
:10136B0064014E60030214D3852982852883A3A3CD
:10137B00E0FEA3E07003EE640860030214D3E4788C
:10138B0076F6121E58502D121E26F583121E601271
:10139B001DC3C31204AE7017121E067B01C00112CF
:1013AB001E12D001121DDD7414F008760180057831
:1013BB00760680CEE5292418F582E43528121DCF58
:1013CB00902C9512052BC31204AE60030214D37834
:1013DB0077E6600302146E18F6121E585028121D81
:1013EB00C3121E75701B121E26121DCF7876121D8E
:1013FB00F50BC001121E12D001121DDD7414F0800A
:10140B000578760680D37876E6640A705674FF7892
:10141B0079F608F6E47876F6121E585025EF121D71
:10142B00E7E0FF7E00C3787A96EE1896500F787639
:10143B00E6FD7879A60608A6077878A605787606DD
:10144B0080D6121E26121DCF7878121DF57B01C097
:10145B00017878121E14D001121E397878121DE60D
:10146B007414F0121E4864024E7044E51F6059124A
:10147B001E26121DCF900177121E60C31204AE7090
:10148B0047F51F900177E0FCA3E0FDA3E0FEA3E08E
:10149B00F54C8E4B8D4A8C49A3E0F54DA3E0F54EF0
:1014AB00A3E0F54F900175E0FEA3E0FF0219501287
:1014BB001E4864014E7011121E067B01121E26126D
:1014CB001DCF755E02121B4A228E3E8F3F8C408DC4
:1014DB00418B42EF2422F544E43EF543EF240EF515
:1014EB0046E43EF545854482854383E4F0A374507E
:1014FB00F01219422404F582E5F03400F583E0FF85
:10150B00A3E0854482854383A3A3CFF0A3EFF0E54B
:10151B0042121863121854FFE54424041218971250
:10152B0005471219422406F582E5F03400121854CF
:10153B00FFE5442408121897120547E544240C12C2
:10154B0018977450F0A37418F0E544240E121897F2
:10155B007404F0A3E4F0121893E4F0A3F0E5442430
:10156B0012121897E4F0A3121845FFE54624101247
:10157B001924902C9512050EE546240C121924E51E
:10158B003F241AFFE4353EFEE5412408FDE43540D7
:10159B00FC122094E4FCFD1218FC120502EF240649
:1015AB00FFE43EFEE43DFDE43CFC1218FC12051E7C
:1015BB00E4FCFDEB2541FFEA35401218B91218FC8B
:1015CB0012050278101204BFAB07AA067896120513
:1015DB0002EF2BFFEE3AFE789AF608EFF6F4FFEEE9
:1015EB00F4FE121893EEF0A3EF121845F54C8E4B48
:1015FB008D4A8C49754D0685404E85414FAF3FAEA8
:10160B003E1219501219422416F582E5F03400F5FA
:10161B00837404F0228E288F29EF240EF52BE43EE1
:10162B00F52AF583E52B2410F582E43583F5831237
:10163B002B73902C9512052BC31204AE600302176B
:10164B0035122B8BE0540F75F004A4FFAEF07876B7
:10165B00EEF6FC08EFF6FD122B8BA3A3E0FEA3E046
:10166B00C39D7879F6EE9C18F6E529240EFFE43538
:10167B0028FE122094EFF47002EEF460030217358B
:10168B00122B8BE0C4540F64046003021735E52B57
:10169B002406F582E4352AF583E0543FFEA3E04EA1
:1016AB0060030217357876E6FE08E6FFD39414EE56
:1016BB009400404C08E6FC08E6FDC004C005E52993
:1016CB00240EFDE43528CD2FFFED3EFAA9077B0153
:1016DB00E5292422FFE43528A807FC7D01D007D09B
:1016EB000612077078767600087614122B8B7445E9
:1016FB00F07879E62414FE18E436A3A3F0A3CEF019
:10170B00E52B2409F582E4352AF583E024FA6014ED
:10171B0024F5600A24107012122B7F0227DD122B86
:10172B007F021CF5122B7F1207B0228E328F338C67
:10173B00348D357536097537C4E5372422F539E410
:10174B003536F538E537240EF53BE43536F53A906A
:10175B000183E0FFA3E0853982853883A3A3CFF013
:10176B00A3EFF0853982853883E534F0A3E535F0B6
:10177B00EB2408FFE43A122614EEF0A3EFF0E53960
:10178B002406122619E4F0A3F0AE02AF03E53324CE
:10179B002AFDE43532FAA9057B01E5392408FDE47D
:1017AB003538A805FC7D0112036390017F12262CAE
:1017BB00FFE53B2410122676902C9512050EE53B87
:1017CB00240C122676E537241AFFE435361226143C
:1017DB00E0FCA3E02408FDE43CFC122094E4FCFDB7
:1017EB001226807880122644788012051E12261548
:1017FB00E012265412268078101204BF788012262D
:10180B00687884F608EFF6F4FFEEF4FEE53924066B
:10181B00122619EEF0A3EFF090017F12262CF54C57
:10182B008E4B8D4A8C49754D11122615E0F54EA342
:10183B00E0F54FAF37AE36021950F075F02DE5429B
:10184B00A42400F582E5F03400F583E0FCA3E0FD71
:10185B00A3E0FEA3E022E53875F02DA4240AF5825F
:10186B00E5F0340022E6FE08E6FFE53B2436FDE416
:10187B00353AA805FC7D017BFF020363E4F6AA3C25
:10188B00A93D7B017549FF22E5442410F582E4351F
:10189B0043F58322E62436FF18E436FEE53B2FF5AD
:1018AB0082E53A3EF583E4F022EB2FFFEA3EFEEDB4
:1018BB0039FDEC38FC2226FDEC1836A805FC7D0121
:1018CB007BFF02036375F02DE538A4240EF582E54A
:1018DB00F0340022E53B2436FDE4353A22C37994FB
:1018EB00E7788C96FF19E71896227893E6FE08E6C0
:1018FB0022789612053B7896227543FF754428751E
:10190B0045E97BFF22E0F8A3E0F9A3E0FAA3E0FBB3
:10191B00227887E6FE08E6FF22F582E43545F5835B
:10192B00020547E6FE08E6FF120415AE0422AB4C97
:10193B00AA4DA94E02038975F02DE542A422753AF2
:10194B0009753BC4228E478F48EF240EF551E43EB8
:10195B00F550855182F5837445F0A3E4F0E54F24EF
:10196B0014FEE4354E855182855083A3A3F0A3CE9C
:10197B00F00575E575AE747002057414FFE551241E
:10198B0004122B6BEEF0A3EFF0E5512406122B6B38
:10199B00E4F0A3F0E5512408122B6B7420F0E55111
:1019AB002409122B6BE54DF0E551240A122B6BE445
:1019BB00F0A3F0902C9512050EE551240C122B6B15
:1019CB00120547AF4CAE4BAD4AAC49122B67120513
:1019DB0047E548240EFFE43547FE7D147C001220BA
:1019EB0094EFF4FFEEF4FEE551240A122B6BEEF0AC
:1019FB00EF122B65122B7312233FEF4E70279001C2
:101A0B0075E547F0E548122B65122B7390017712A1
:101A1B00054790017BE54DF0A3E54EF0A3E54FF0B4
:101A2B00A37404F022AA06A9077B017568087569DF
:101A3B0000E54F2414F56BE4354EF56AAF48AE471D
:101A4B0012294C2253D9BF122ACE122C55122B0518
:101A5B00122CB7122CF3122C3A122C1E122D1BD255
:101A6B00AF122CCD122CA11200097FC8122D091216
:101A7B00000A7FC8122D09903F647403F0E4903F75
:101A8B007DF01228418F251229D7121E7E1229D7DD
:101A9B00D2AD903F117401F0D2AF122D031229D9A0
:101AAB0075B8017BFF7A2C7989122C6F903F1DE062
:101ABB0030E703431801851721851822D2AFE522A1
:101ACB0030E020C2AF5318FED2AF1222978E238F75
:101ADB0024E524452360D5122A1B78B0E660CDE4BB
:101AEB00F680C9E52230E20A5318FBD2AF121C2252
:101AFB0080BAE52230E30A5318F7D2AF122774806D
:101B0B00ABE52230E40A5318EFD2AF122A5C809C6B
:101B1B00E52230E10A5318FDD2AF122993808DE5EF
:101B2B002230E50B5318DFD2AF121F34021AB7E580
:101B3B002220E603021AB75318BFD2AF021AB78B93
:101B4B00578A5889598F5D8E5C8D5B8C5A755F09EE
:101B5B007560C4E560240EF562E4355FF56185625E
:101B6B0082F583E4F0A304F0856282856183A3A3ED
:101B7B007408F0A3E4F0E5622404121E407406F02E
:101B8B00E5622405121E407404F0E5622406121E61
:101B9B0040E4F0A3E55EF0E56224087B017A01796D
:101BAB0055121E30902C9512050EE562240E121E56
:101BBB0040120547E55EB401187E007F067D00E507
:101BCB00622412FBE43561FAA9037B011205CA807A
:101BDB000DE5622412AB57AA58A959121E30AF5DFE
:101BEB00AE5CAD5BAC5AE5622418121E4012054781
:101BFB00E55EB401087BFF7A2C798F8006AB57AA80
:101C0B0058A959756808756906756A00756B1CAF1C
:101C1B0060AE5F12294C22E47876F67876E6FFC345
:101C2B0094054003021CF4EF1210C212102D121176
:101C3B00477003021CEE7876E6FF121120E070036A
:101C4B00021CEEE6FE121120E014F0EE121120E061
:101C5B006003021CEEEF12105AE064036002801660
:101C6B007876E6FF12106C12115112102DFFC31271
:101C7B0004AE50197876E6FB1211171211B678766E
:101C8B001210C1F58312056C00000000227876E675
:101C9B00FF12106C12115112102DFFD31204AE4013
:101CAB004278A706E6D394027876E6FB502175F0CE
:101CBB002DA42419F582E43400AF82FE753901E4BA
:101CCB00FDFC120C1E78761210DE741EF0801412BE
:101CDB0011171211B678761210C1F58312056C002C
:101CEB00000000787606021C26228E2C8F2DEF2406
:101CFB0022F52FE43EF52EEF240EF531E43EF530C0
:101D0B00122637FAA3E0FBD39DEA9C4003021DC2C7
:101D1B00E52F240612263BFEA3E04E6043E52D245F
:101D2B001AFFE4352CFEEB2408FDE43AFC12209458
:101D3B00E4FCFD12268A787C122644787C12051E60
:101D4B0012263712265412268A78101204BF787C7A
:101D5B00122668787AF608EFF6F47002EEF47057F4
:101D6B00852F82852E83E0FFA3E0900183CFF0A324
:101D7B00EFF0122621FF90017F120547852F8285F8
:101D8B002E83A3A3E0FEA3E0FFEE7019EF24F970FE
:101D9B0014122637FEA3E024F8FDEE34FFFCAF2D22
:101DAB00AE2C022D10122621F5378E368D358C3444
:101DBB00AF2DAE2C1223DE22EF75F00BA424E7F52A
:101DCB0082E43400F583E0FCA3E0FDA3E0FEA3E096
:101DDB00FF227E007F061203637876E675F00BA474
:101DEB0024F1F582E43400F58322E675F00BA4248C
:101DFB00E7F582E43400F583120547E5292408FF53
:101E0B00E43528FAA907227876E675F00BA424EBC3
:101E1B00F9740035F0A801FC7D0122E529240EF5AB
:101E2B0082E4352822FFE43561A807FC7D017E00A2
:101E3B007F06020363F582E43561F58322E52924ED
:101E4B0006F582E43528F583E0FEA3E0227876E6FA
:101E5B00FFC3940A22E0F8A3E0F9A3E0FAA3E0FBA6
:101E6B00227E007D007B010205CAE4FBFAF9F8C370
:101E7B000204AE903F78E030E40D7DB37C407F01EF
:101E8B00122C097D15800B7D127C407F01122C09D1
:101E9B007D127C007F02122C097D127C0C7F0312B9
:101EAB002C097DEE7C057F05122C09903F69741F70
:101EBB00F0903F6874FAF0903F05E090016FF0905E
:101ECB003F05E0900170F0903F05E0900171F090BC
:101EDB003F05E0900172F0903F05E0900173F090A8
:101EEB003F05E0900174F090016FE0900155F09088
:101EFB000170E0900156F0900171E0900157F09065
:101F0B000172E0900158F0900173E0900159F0904C
:101F1B000174E090015AF07B017A01796F122A95D6
:101F2B007D017C00E4FF022C09C2EDD2EC30EDFD0B
:101F3B0078A2E624ED605324F57071122B36FDACBC
:101F4B0006E41201D9E4FBFA7948784012002E120C
:101F5B000212789CEEF608EFF6FDAC06E41201D9FE
:101F6B007B8F7AC27975783E120137120212121FDB
:101F7B00D57A007903121FBF78A5A60608A60775A8
:101F8B00BB1375D10F78A2761322122B367C007DF2
:101F9B000A120403121FD57A007906121FBF08A676
:101FAB000608A60775BB1E75D107800375BB1E7887
:101FBB00A2761E227BFF122C6F7B007A007908120F
:101FCB002C6F789CE6FE08E6FF22789CEEF608EF75
:101FDB00F67B007A007908122477228E3E8F3F8B96
:101FEB00408A4189428B498A4A894BE9240CF9E49E
:101FFB003A8B46F5478948AB46E5481548700215BC
:10200B004714F9AA47E41203CFE543FD7C00AE3E2B
:10201B00AF3F120415ED2430F545E43CF544D3E510
:10202B00459439E5449400400B74072545F545E488
:10203B003544F544AB46E54815487002154714F98D
:10204B00AA47E5451203CFAE3EAF3FAD437C00122E
:10205B0004158E3E8F3FE53F453E70ADAB460548C0
:10206B00E548AA477002054714F9120389FFAB40F4
:10207B000542E542AA417002054114F9EF1203CF64
:10208B0070DAAB49AA4AA94B228C528D53AB07AAE3
:10209B0006E4F557F556F555F5548A588B59FBFA66
:1020AB00E552C313FEE55313FFC3EB9FEA9E502784
:1020BB00E559FF2402F559E558FE3400F5588F8297
:1020CB008E83E0FEA3E0FFE4FCFDE5572F122CE12D
:1020DB000BBB00010A80C9E55330E011855982859D
:1020EB005883E0FEA3E4FCFD2557122CE1AF57AE5D
:1020FB0056AD55AC5478101204BFEFFBEEFAE55712
:10210B00FFE556FEEF2BF557EE3AF556E433F55552
:10211B00E433F554E555FDE554FC4D6013E55724C8
:10212B0001F557E43556F556E43DF555E43CF554C9
:10213B00E557FFE556FE22C0E0C0F0C083C082C069
:10214B00D075D000C000C004C005C006C007C2CF08
:10215B0078A9120502EF246AFFEE3418FEE43DFD68
:10216B00E43CFC78A912053B78A9120502E4FFFEBA
:10217B00FDEC5410FC600978A91205530000000116
:10218B00051CE51C7002051B6405451B70034318F9
:10219B0010E51C640A451B7003431808E51C640F0B
:1021AB00451B7003431820E51C6414451B7007F591
:1021BB001BF51C431804051EE51E7002051DB461BA
:1021CB000EE51DB40909751D00751E00431802D0DC
:1021DB0007D006D005D004D000D0D0D082D083D089
:1021EB00F0D0E032EF2422FFE43EFE753D09753E50
:1021FB00C4E53E2422F53CE4353DF53B853C82F5B8
:10220B0083E4F0A3F0122BD5F08F828E83E582242A
:10221B0004122BB92404122BC88F828E83E58224DF
:10222B0006122BB92406122BC8E53A24F8FDE53922
:10223B0034FFFCC004C005EF2408FFE43EFAA907F5
:10224B007B01E53C2408FFE4353BA807FC7D01D06E
:10225B0007D006120363E53E2422FFE4353DFEADB5
:10226B003AAC39122094EFF4FFEEF4122BD5EFF0C9
:10227B0085384C85374B85364A853549754D0185F3
:10228B00394E853A4FAF3EAE3D021950C201903FD9
:10229B007FE0903F63E030E01C903F1CE0FFE4FEEA
:1022AB00EF60061452070E80F7EEC39407400690BA
:1022BB003F117408F0903F1EE030E70A903F1DE09D
:1022CB0030E703D38001C39200300012903F1FE030
:1022DB00F526903F20E0F5277A037BE88009E4F5AB
:1022EB0026F527D201FAFBE4F528F529C3E5299554
:1022FB0027E5289526501B903F01E0FFEB2529F59C
:10230B0082EA3528F583EFF00529E52970DE0528EB
:10231B0080DA78B07601903F11E03001054402F08D
:10232B0080034404F0903F1CE07004903F11F0AF29
:10233B0003AE02228F558E548D538C52902C9512D6
:10234B00050EEF6555FFEE6554FEED6553FDEC652F
:10235B0052FC902C9912052BEB5FFFEA5EFEE95DB8
:10236B00FDE85C4D4E4F6022E4FFFEFDFC902C9D82
:10237B0012052BC31204AE7003FEFF22902C9D128C
:10238B00050E8F558E548D538C52E4F556E556122F
:10239B001DC4AB55AA54A953A852C31204AE701155
:1023AB00E55675F00BA424EBF582E43400AF82FE06
:1023BB00220556E556B40AD57B007A007900AF5555
:1023CB00AE54AD53AC52755E01121B4A751F01E43E
:1023DB00FEFF22AB07AA067538097539C4E5392407
:1023EB0022F53BE43538F53A853B82F5837403F0EF
:1023FB00A3F0853B82853A83A3A3E4F0A3F0E53BEE
:10240B002404F582E4353AF58312056C00000000D4
:10241B00EB240EFFE43AFAA9077B01E53B2408FF06
:10242B00E4353AA807FC7D017E007F1C120363E5AF
:10243B00392422FFE43538FE7D247C00122094EFF2
:10244B00F4FFEEF4853B82853A83A3A3F0A3EFF070
:10245B0085374C85364B85354A853449754D017525
:10246B004E00754F24AF39AE380219508B268A2790
:10247B0089288F828E83752900752A01752B00752B
:10248B002C0AAC2BAD2CAF82AE8312046AEF4E60DC
:10249B0014052AE52A700205291229DF1204038E7E
:1024AB002B8F2C80DD85832B85822C122A00852A8D
:1024BB0082852983E41203E1D3E52A9401E529649B
:1024CB00809480402B1229DF12046AED2430FF1216
:1024DB002A00E52A152A7002152914F5828529830D
:1024EB00EF1203E11229DF12046A8E2B8F2C80C8A6
:1024FB00E52C2430122A000203CF787FE4F6D8FDB6
:10250B007581B202254C021A4FE493A3F8E493A30E
:10251B004003F68001F208DFF48029E493A3F8541A
:10252B0007240CC8C333C4540F4420C8834004F49D
:10253B0056800146F6DFE4800B01020408102040B0
:10254B0080902B92E47E019360BCA3FF543F30E557
:10255B0009541FFEE493A360010ECF54C025E06025
:10256B00A840B8E493A3FAE493A3F8E493A3C8C5F3
:10257B0082C8CAC583CAF0A3C8C582C8CAC583CAE4
:10258B00DFE9DEE780BE8E6E8F6F8C708D71903FB2
:10259B0054E070FA122A11903F08F0903F09F0F5C1
:1025AB0072F573FDFCC3ED9571EC95705021E56FE1
:1025BB002DF582E56E3CF583E0903F04F00573E565
:1025CB0073700205721229E80DBD00010C80D6C391
:1025DB00E5739440E57294005012E4903F04F005CB
:1025EB0073E573700205721229E880E3E5731573C6
:1025FB0070021572E572903F57F0E573903F58F0FB
:10260B00122A11903F5304F022FEE5392404F5827F
:10261B00E43538F58322E531240CF582E43530F5C9
:10262B0083E0FCA3E0FDA3E0FEA3E022E52F24045E
:10263B00F582E4352EF583E022EF2411FFE43EFE14
:10264B00E43DFDE43CFC02053BFEA3E0FFE4FCFDA6
:10265B00EB2FFFEA3EFEED39FDEC38FC22AB07AA6F
:10266B0006120502EF2BFFEE3AFE22F582E4353A15
:10267B00F583020547788012053B788002050278C6
:10268B007C12053B787C0205028B468A478948AB56
:10269B0049AA4AA94B12038970028049AB46AA4743
:1026AB00A948120389605285494C854A4D854B4E8A
:1026BB008B4F8A508951121939FF6024AB4FAA50A6
:1026CB00A951120389B507187401254EF54EE4354F
:1026DB004DF54D74012551F551E43550F55080D62B
:1026EB001219397007AB46AA47A94822740125482D
:1026FB00F548E43547F54780A37B007A0079002243
:10270B008B408A418942AA06A9077B0185404985EE
:10271B00414A85424B122694AE02AF01EF4E604800
:10272B0078977601E418F67896E6FDC3940850384E
:10273B00AB43AA44A9458D827583001203A2FD7099
:10274B00037897F67897E6600D18E62FF582E43E4E
:10275B00F583EDF0800D7896E62FF582E43EF58358
:10276B007420F078960680BF22E47876F67876E6C9
:10277B00FFC39405505BEF1210C212102D121147BC
:10278B00604A7876E6FF12105AE06403703EEF124F
:10279B0010DFE06037E6FF1210DFE014F0EF1210ED
:1027AB00DFE07028E6FB7F111211191211B6787653
:1027BB001210D012102D240112110CEB1210D2F5A5
:1027CB008312054778761210597406F078760680D6
:1027DB009C228E2C8F2D8C2E8D2FEF240EFFE43E02
:1027EB00A907753001F5318932E52D2422FFE43E2E
:1027FB00FE122094787BEEF608EFF6BEFF37BFFF94
:10280B0034E52D2422F582E4352CF583E0787AF635
:10281B0024F87021AB30AA31A93290000C1204D2EB
:10282B008F388E378D368C35852E39852F3AAF2DD7
:10283B00AE2C1221EF22E4FE903F78F0903F7A7499
:10284B0080F074A61229F57FC8122D0374E0F012E4
:10285B002D09903F7FE0FDE4903F78F074F612294C
:10286B00F5122D0374E0F0903F7FE0FD1229D99013
:10287B003F7EE0540560F8903F7EE0FD530505ED8B
:10288B0030E2047E20800FBD010AE4FE903F70749D
:10289B000CF080027E20AF0622504F535400474568
:1028AB00540070686F746F3100696E646578002F27
:1028BB0020007377697463683D005441473A4C4577
:1028CB004E31005441473A544D5031005441473A30
:1028DB00564F4C31005441473A43484B3100434823
:1028EB0045434B4544005441473A43484B3200540F
:1028FB0041473A4C454E3200C0E0C0D0758CF07564
:10290B008A60E513600215130516E51670020515AE
:10291B00E51960041519802475190AE5146004156E
:10292B00148019751464051AE51AC3943C400D758F
:10293B001A000512E512B43C03751200D0D0D0E09A
:10294B00328E638F6485636C85646DA86DAC6C7D12
:10295B0001122A072406FFE4356CA807FC7D017BD6
:10296B00017A017955122A07240CF582E4356CF5AE
:10297B0083E568F0A3E569F0E56B240EFDE4356AA9
:10298B00FCAF64AE63022591E4F526E526121DC467
:10299B00121E75602EE526121DE7E06026E5261255
:1029AB001DE7E014F0E526121DE7E07016E526752D
:1029BB00F00BA424E7F582E43400F58312056C00D8
:1029CB000000000526E526640A70C0227F32122D16
:1029DB0009022D09AE2BAF2C7C007D0A22E57290EB
:1029EB003F08F0E573903F09F022903F79F0903F5C
:1029FB00787480F022AB26AA27A928227E007F06B6
:102A0B00120363E56D22E4903F59F0903F5AF02298
:102A1B008E268F278F828E83E582240CF582E435F8
:102A2B0083F583E0FCA3E0FDC394F0EC9405402018
:102A3B00ED8CF012059D2A5408002A4D0806000063
:102A4B002A5BAF27AE26021354AF27AE26121620F1
:102A5B0022E51F603490017EE0602E14F0E07029B7
:102A6B0078B106E6D3940250197B007A0079009076
:102A7B000177121DD1755E01121B4A90017E740401
:102A8B00F022E490017EF0F51F229000051203A2C4
:102A9B00F5269000041203A2F527AD27AC267F1074
:102AAB00122C099000031203A2F5269000021203C8
:102ABB00A2122C029000011203A2F5261203891216
:102ACB002C022243B283E5B920E52BE4F5B9F5B925
:102ADB0043B980FFFE0FBF00010EEF64C84E70F5C7
:102AEB0043B9C0E4FEFF0FBF00010EBE07F8BFD015
:102AFB00F5E5B930E5FB75A9032275E10175F1FC2C
:102B0B0075D40375E24043A41043A5C043A502430B
:102B1B00A51853A5FE43A6FC75F2FD75D50275A746
:102B2B00FF75AEFF75850B7584FF22AFBE78A0765F
:102B3B000008A607AFBD78A3760008A60778A1E624
:102B4B007F0018F6FE08EFF678A3E6FC08E62FFFE9
:102B5B00EE3CFE789CF608EFF622A3F0E55124102C
:102B6B00F582E43550F58322E0FCA3E0FDA3E0FE03
:102B7B00A3E0FF227878E6FC08E6FDAF29AE282219
:102B8B00852B82852A832202A50E7401B10001B226
:102B9B00000274000002AE00014601550001020361
:102BAB00040501A700021B0000021D000000F582B6
:102BBB00E43583F583E0FCA3E0FDE53C22F582E4FC
:102BCB00353BF583ECF0A3EDF022853C82853B830E
:102BDB00A3A3F0A322C0D075D000C000C0073098CB
:102BEB000DC298AF9978AE760008A6078002C299FD
:102BFB00D007D000D0D032F527AD27AC260F903FB1
:102C0B000AEFF0903F0BECF0ED903F0CF0E4903FAF
:102C1B000DF0227E007FE17D007B017A00790012AE
:102C2B0005CAE478A8F60812055300000001227EBD
:102C3B00007F147D007B017A01795B1205CAE4F5F4
:102C4B0017F51878B0F678ADF622438E0843890154
:102C5B0075190AE4F514C28C758CF0758A60D28CE8
:102C6B0043A80222C2AC1203896010F599740129A2
:102C7B00F9E43AFA3099FDC29980EBD2AC22737425
:102C8B0061727400FFFFFFFFFFFFC0A8837EFFFF91
:102C9B00FF00C0A883FE7F6E7A0079E7121E6C7F5F
:102CAB000A7A017975121E6CE4F51F224398107590
:102CBB008E70758D30858D8B758920D28ED299D281
:102CCB00AC2275D10F78A2761E75BB1E75BA1F7517
:102CDB00BCF875E88022F557E5563EF556ED3555AF
:102CEB00F555EC3554F55422E4F5C875CB4CF5CAC3
:102CFB0075CD4CF5CCD2CA22122D09122D098F138A
:102D0B00E51370FC22AB05AA047D077C0002173685
:102D1B00C202A2029200020026485454502F312EB8
:102D2B003120323030204F4B0A43616368652D638D
:102D3B006F6E74726F6C3A206E6F2D636163686592
:102D4B000A436F6E6E656374696F6E3A204B6565EF
:102D5B00702D416C6976650A436F6E74656E742DC8
:102D6B004C656E6774683A205441473A4C454E3176
:102D7B000A436F6E74656E742D547970653A2074C6
:102D8B006578742F68746D6C0D0A0D0A003C4854FD
:102D9B004D4C3E3C484541443E3C5449544C453EC9
:102DAB004338303531463334302057656220536514
:102DBB00727665723C2F5449544C453E0A3C4D4546
:102DCB00544120687474702D65717569763D436F3D
:102DDB006E74656E742D5479706520636F6E7465B7
:102DEB006E743D22746578742F68746D6C3B206330
:102DFB006861727365743D676232333132223E0A09
:102E0B003C4D45544120636F6E74656E743D224D8D
:102E1B006963726F736F66742046726F6E74506164
:102E2B00676520352E3022206E616D653D47454E1E
:102E3B00455241544F523E3C2F484541443E0A3C7B
:102E4B00424F44593E0A3C464F524D2061637469D0
:102E5B006F6E3D2F696E6465782E68746D6C206D96
:102E6B006574686F643D706F73743E0A3C544142E5
:102E7B004C4520626F726465723D302077696474D3
:102E8B00683D223130223E0A3C54424F44593E0A9F
:102E9B003C54523E0A3C54442077696474683D228A
:102EAB0031303030223E0A3C48313E266E62737020
:102EBB003B266E6273703B266E6273703B200A3C3E
:102ECB0048313E266E6273703B266E6273703B26F2
:102EDB006E6273703B266E6273703B266E6273700C
:102EEB003B266E6273703B266E6273703B266E627E
:102EFB0073703B266E6273703B266E6273703B265B
:102F0B006E6273703B266E6273703B3C666F6E74C1
:102F1B002073697A653D2236223ECAAFBCD2D7AF49
:102F2B00CCFAB5C0B4F3D1A7203C2F666F6E743EBC
:102F3B003C666F6E742073697A653D2236223EBB08
:102F4B00FAD0B5B9A4B3CCD1A7D4BA3C2F666F6E67
:102F5B00743E3C666F6E742073697A653D2236222F
:102F6B003E200ACBEFC8EAC5F43C2F666F6E743E69
:102F7B003C2F48313E0A3C5441424C4520626F7213
:102F8B006465723D322077696474683D223935304F
:102F9B00223E0A3C54424F44593E0A3C54523E0A8C
:102FAB003C54442077696474683D34373520686538
:102FBB00696768743D35303E0A3C7020616C696707
:102FCB006E3D2263656E746572223E3C666F6E7455
:102FDB0020666163653D22CBCECCE5223E43505546
:102FEB0020CEC2B6C83C2F666F6E743E3C2F544445
:102FFB003E0A3C54442077696474683D343735206D
:10300B006865696768743D353020616C69676E3D32
:10301B002263656E746572223E5441473A544D509B
:10302B0031A1E63C2F54443E3C2F54523E0A3C54B3
:10303B00523E0A3C54442077696474683D343735FA
:10304B00206865696768743D35303E0A3C702061C5
:10305B006C69676E3D2263656E746572223EBBAC14
:10306B00B6AFB1E4D7E8C6F7D7AABBBBB5E7D1B9C2
:10307B003C2F54443E0A3C54442077696474683DA9
:10308B00343735206865696768743D353020616C6D
:10309B0069676E3D2263656E746572223E544147CB
:1030AB003A564F4C31A3D63C2F54443E3C2F5452EE
:1030BB003E3C2F54424F44593E3C2F5441424C45C9
:1030CB003E3C42523E3C42523E266E6273703B2661
:1030DB006E6273703B266E6273703B266E6273700A
:1030EB003B266E6273703B266E6273703B266E627C
:1030FB0073703B266E6273703B266E6273703B2659
:10310B006E6273703B266E6273703B266E627370D9
:10311B003B204C4544D6B8CABEB5C63A200A266EEB
:10312B006273703B203C494E505554207479706546
:10313B003D726164696F20434845434B454420769B
:10314B00616C75653D31206E616D653D737769749A
:10315B0063683EC3F0203C494E505554207479703F
:10316B00653D726164696F200A76616C75653D30EF
:10317B00206E616D653D73776974636820544147B8
:10318B003A43484B323EC1C120266E6273703B20DE
:10319B00266E6273703B203C494E50555420747917
:1031AB0070653D7375626D69742076616C75653DF4
:1031BB00B7A2CBCD3E203C2F54443E0A3C54442076
:1031CB0077696474683D223337223E3C42523E2677
:1031DB006E6273703B20266E6273703B266E627359
:1031EB00703B200A3C2F54443E3C2F54523E0A3C29
:1031FB0054523E0A3C54442077696474683D22372C
:10320B003339223E0A3C2F54443E0A3C5444207727
:10321B00696474683D223337223EA1A13C2F54448C
:10322B003E3C2F54523E3C2F54424F44593E3C2F70
:10323B005441424C453E3C2F464F524D3E3C2F4253
:10324B004F44593E3C2F48544D4C3E0A0048545471
:10325B00502F312E3120323030204F4B0A436163D7
:10326B0068652D636F6E74726F6C3A206E6F2D6391
:10327B00616368650A436F6E6E656374696F6E3A5E
:10328B00204B6565702D416C6976650A436F6E74D2
:10329B00656E742D4C656E6774683A205441473ADD
:1032AB004C454E320A436F6E74656E742D547970B3
:1032BB00653A20696D6167652F6A7065670D0A0D48
:1032CB000A00474946383961F9026100F7000000EE
:1032DB002B41F9B30A8CB2D93186960163B68DB8FE
:1032EB00C30183B50165ABEEF3F802DDDD00666665
:1032FB004DA2C699A057BFDDDF5092CAFCDD9301EA
:10330B004F71D0D5D8016EBAFAC4410195C37396EB
:10331B006A72A3D1017BB5004568448A88016C8E23
:10332B002EA1CC1181B7E6EDF6016BADAEC7E22E47
:10333B00F8FCB9A538DDAF22E6E0BB0183C5003B45
:10334B0059439CC4156B89AFD5DB3B8BAB0073AC7E
:10335B00CCCC99007DC2D9EBF463ADCB015C5CFFA7
:10336B00FFFF0172B60099CCFFCC66CCB85C00664F
:10337B009982ACD690C5D59DC0CDF8B719BACED32E
:10338B000173733EB0D52E8CB3018CB7017CBC6638
:10339B0099CC117DAB00354FF7F9FCAF939FA7D0BC
:1033AB00E5CEAC2F3B93BF00FFFF067CB51D83B76B
:1033BB00DAE4D80F93C3005C8A006699006DA3CF43
:1033CB00DDEE1F9CBCECB1155AAFCFF9BC2A33C64E
:1033DB00E2FDECC39DBCDD018DC578B8CFA4C8C898
:1033EB00016AB600527B0042630173A550A4CD76EF
:1033FB00AFC3004C72EDF2F8B6CCE55399AE003189
:10340B004A115F7E01A5D5B4B8BE65A7C769BED802
:10341B000183BD318FC102F7F7017BAD1776A30195
:10342B0063A70173BBDCE6F2005681017CA6005951
:10343B0085D6D9D9248CBD006699C3D5E901729B79
:10344B002D85AA1A87BB5CB7D5BFD9D1003F5E01CA
:10345B00496A3D9AC301638B54A0C22D91BF378833
:10346B00C69BCAD701A4A4C1DFED82BED30173945E
:10347B004798BB02C3C302EFEF015879AFA7B20F56
:10348B007DB270B4CD2F9AA50099CC59A6C4003843
:10349B00530F9DCD298FBF106B8A0B85BC016286A4
:1034AB00002E443CA5CC018989018DCA09517510A8
:1034BB0086BD1A6585156F9A0A6B8C69B0CC0A5A52
:1034CB0080064D6F4DB1D2207DA5D6E1EF0181ACC9
:1034DB00239ECB06739AAEC7D10B70A368A7BB9480
:1034EB00B7DB0B638D3394C102E5E5075378C8D97D
:1034FB00EB115B7D1C97C75A9FB9A6D0D930AAD1C7
:10350B000D628B19A4D10066990573AC018DBDF9C1
:10351B00F8F0BACFE6A8C4E00F8DC153A5C7236658
:10352B00845DAAC9066E931E718C058EC5086394C3
:10353B00004A6376A5D30B6B9BA2BFDF0884B51F34
:10354B0081A1087AA9C5CFD50897CA0179A0077DB3
:10355B00A71053721063850A5B7C0882B01776A0A4
:10356B00135D810E4E6E94B5D60D699416668C0F55
:10357B00709D1473A200000000000000000000000A
:10358B000000000000000000000000000000000030
:10359B000000000000000000000000000000000020
:1035AB000000000000000000000000000000000010
:1035BB000000000000000000000000000000000000
:1035CB0000000000000000000000000000000021CF
:1035DB00F904041400FF002C00000000F902610044
:1035EB000008FF002F081C48B0A0C18308132A5CF9
:1035FB00C8B0A1C38710234A9C48B1A2C58B18330E
:10360B006ADCC8B1E3C1353264ACF14872CD1A2C17
:10361B005842AA0C89D2E4489217CE507898F207F8
:10362B004C4F9E1CA67C893186CF9F4083FE544114
:10363B00B4E8059448B15058FACBE5480F50A34A6B
:10364B008D7AA0AAD52D5BA2FAF400074E0C931429
:10365B0070E24C8A85C596033F48FC881A87845BC9
:10366B00B73661CA9D4BB7AEDDBB78F3EADDCBF75E
:10367B0002481971FB2A348972A5CA9626EFA6C493
:10368B00E2102463923869CAD028B4728CA22A82C1
:10369B00FA258BD4A98AA9A0A75AAD4A40EB40A121
:1036AB008B3997658134CE812D2CDEBEA5F0E3805E
:1036BB004FC1B873EBDECDBBB7EFDF06FF06D64DC0
:1036CB0038A561199D79EA0DF910A4F28D6B22379B
:1036DB004C99D1B250CC7E139F54ED3446E8EF5148
:1036EB002548FF18EDC1F670821EBEAAE64C424279
:1036FB006CD96E9572957A1BB8FDFBF8F3EBDFCFA7
:10370B007727EEE2C6AD94DC6E7F3D84D3791A51F8
:10371B00D790733D590714662EAD87984BDE4175D4
:10372B000178538927DE590778E0D70F208258D9C3
:10373B005FEBA995160B28A2F89648A359C5DF8B0A
:10374B0030C628E38C2F32981780C721874562C07B
:10375B006171068208D9D8917FD34D569183D715C5
:10376B00F5C32FBF48F8038F0245756168E441B577
:10377B00857804545550855A05B5946A2CA497E264
:10378B0098B1D5D4E201730523871C43C0E0A69BF7
:10379B001DC801850A34D669E79D78FA1612901C6C
:1037AB00E1781C62FC796264434BF179114A8DFD1F
:1037BB00782492D66DC79953F401F55D8753116048
:1037CB0069691EC411078653C5F08B0C4B51201B26
:1037DB005731909922094BC58015871D05D3C19B85
:1037EB00B0C6FF2A2B0C73D299E7ADB8E65A974BAC
:1037FB00F8AD71C6637D3A9A23A032FAFA9C42C89F
:10380B0095049843C94EC4A84F9861F64352A1AE94
:10381B0031ED94F46537A9549776DB2D68674255E3
:10382B00D51AA1C207158A3E91B9D895E2C5A05108
:10383B001E6DC62A861CC17C60EFBD1F40C1A6ACA5
:10384B006218A5EBBF0007CC1058872515626F4493
:10385B005AE4A7612DDDEAABA10535EC51B30C257C
:10386B00FCD0B39559D82459D69A442968DA829B4F
:10387B009E779646E56DB854853B2D4AF0BDB5292C
:10388B0099A802569578188901EB105038C38CA96A
:10389B003CB350880DAEC65AABAD1D2561F4D14972
:1038AB0008ACF4D2741527C31950B3142072C8F1A5
:1038BB009ADB8112453875C1C7DEFAEB4314F7B9B1
:1038CB006C4322458471503C6E9C94531F83E6934A
:1038DB00493154959E85024950F29978E7DDB6043B
:1038EB00E5B6FF4C421C3FC09CAA8B15C50BC31001
:1038FB0079D8D0F3E2643A008B1CB0CAF184BF4C88
:10390B00576E397000AE6DB5404E4D8D12C4752D8E
:10391B001651610CEF68F9195D1F247147612B2457
:10392B009D436703E594A3C93D85E10F3E3D796156
:10393B000C2182B886DD59EA2D7CDE31B0D4F2E25F
:10394B002430D7154536BB29062C85B00044F464CA
:10395B00160284A9367C5008330EEC9CA203C118C6
:10396B002EF9E4445F6EFEF977D15EBB4464813E71
:10397B0097A0A92364DCEAE6EFE9D0EB1C7DBE60DF
:10398B00D9B0C7FEB684D6FA411CB2021E7741E508
:10399B006D50F28B775A24950BC46D78798B03A8F5
:1039AB0044F516C6B1262431808344200727C5A1D0
:1039BB00E803308005999CE126EFA58819B0781CA7
:1039CB00144458BD0F18AE064F201FFA6648C38C1F
:1039DB00A86F42F1838849749443B9D4A439FCABE2
:1039EB00E1D7FF8AD4438A047121AD4B88FFB672AD
:1039FB00146A2DC55A6A21009752D6A12835D07466
:103A0B00031197DCC47581505D000E103C13017ED1
:103A1B00002AF8A4AB67C69148BC9E472620C0C0BD
:103A2B001950F0A0CF4068429FE5615EB080C1079E
:103A3B007A568860BCA903309C5C0D0749C8C170DD
:103A4B0027811E490A5F960211D1D5D091151B14FF
:103A5B004790E3BE2ED2A6214BDCCACADAE716ACDE
:103A6B0050A92ABC0B0DB918D9B6A8784529A2C202
:103A7B00820AC2489EF1384636DED194A64C954652
:103A8B0087E4E14DC1A05E8A9CE1C6C439604C203D
:103A9B00EC80E21CD0813601A103508081187ED9C5
:103AAB00B363BA6908358021510A494D1ADE704754
:103ABB009BB3CB2811D9B4242AC462E863CEFE8011
:103ACB0035C922FAC59B06F1DF15396692557D1271
:103ADB004DD81AD9571C7581BCB16647BC7B202BBE
:103AEB003B14FF87D22CA682E98ADB1953A42086CC
:103AFB00BC4A99754C91F3E470BD14DDF2702C64E3
:103B0B0001143AE0C6C3351445D0638133E408424F
:103B1B0037052390E5ABA6487595B9DA99732E7FD7
:103B2B0039698250D748745A4E9C031BDB24C989D0
:103B3B002C49222493DEF94AA89E68927E4A512A88
:103B4B000C5CCB542E10229F7C0EA81D42E51AE66E
:103B5B00B645A4E22D536789C15248C033A8C4812E
:103B6B00960D8917147449261804C3191D70063352
:103B7B0051C48C107E4F0CC170800DF290871401D4
:103B8B0001721FF06330C6C48C78E5219A321CA9F0
:103B9B005EED744D6CAA142F62F9EB457C45D38511
:103BAB0040127D143843635C5A11FA25447F4A5CFA
:103BBB00A27638139B1F7C8B8A5AAA678B7887BB9C
:103BCB009F906B0DFA4C2A4ADC154FD1E84D02AC95
:103BDB00420ECF7E922259C68121F19AAB5B23CA4A
:103BEB008214FF3E548ECC80422EC704848676808E
:103BFB00B65040DC1B4D558883764010D20CE95EE5
:103C0B00976B9FBE66F33E3B9469370BFBCD239EB0
:103C1B00AFA00B11D246183B1072515720996CA2D2
:103C2B001329B0864E5E568BA0BC10032DC3822782
:103C3B0096E7352428CB014B89D9332DB02A29A1FE
:103C4B002A99064AA685C48BB62C00A16C51948781
:103C5B0062CAC18263728018A8E7CC0F28F8A263EE
:103C6B002A2E9C9A0052E65A9840D7744A9DC0E976
:103C7B0043EE46CCBA97F3D14929D991421529B2D3
:103C8B00FEBBE65262E39A6E3DD5815691E74FA497
:103C9B009296F8CAE017B174CB1427A5372EC14101
:103CAB0005AA1DD3014BE55A4D29E4BF239483CDBF
:103CBB00E45888898A6108106641F7985147075C78
:103CCB00B4106C6501337EBBB887E6A10ED1F482CC
:103CDB00722F4C66B994747D0E2371E8405CDDEF56
:103CEB0032CDFF4760132CA1DC4C10C8A6539D9B13
:103CFB004449A898C4026FC54D2ACBAB67A44E1399
:103D0B00952DB4253E52C3426DDEDBD4FAA26C3442
:103D1B00E4D22F8AAC32E34C191921CD03300BDCE2
:103D2B006483629AAAB73F5393E1602506287CC04F
:103D3B0084DBD3A8324DC58C3DA288835F16440C1F
:103D4B00C75CE65A2BCCB9DCC4D549D89C485ECBB2
:103D5B00CFD74BF3B040B0963F9B3E96BA38E59D1C
:103D6B00DAAA858518782B4BA6D46069875CE95550
:103D7B00BD075514080909BC83BBAE7465C88CCE4E
:103D8B00DB54BC12641431FADC973608079D4126CC
:103D9B00581C14083618C2587D068B64C2400E712D
:103DAB00FD401EEE55AF3C040D71750CDF98601194
:103DBB00EFB6A248C23008431D642D485B57F37021
:103DCB001D39F384CC279C35FF95C3957B18B3E83D
:103DDB003C91E8E4249207891D68D4969C67634A5A
:103DEB004AEAFFB56FA53D70A918C497334F2A5403
:103DFB00EE3ABB15F4C6D8E6F89581A4B9B459D2FE
:103E0B0016C48F303078828770E0DA8EB5102EC4EE
:103E1B0019140A8C6F9D519919D963BA6E5FC565D8
:103E2B009F8DD5016BBC72BC149E5C8717F25543FA
:103E3B00B80076B2866B39EBEAB030C1F86385BD5A
:103E4B009B0C64001A1921F6424C5CECFDE5F05911
:103E5B00F441CA4EFF7680673730E5EBADB4A5ACC5
:103E6B00724FBDEFF4F03CFD5C50B4389E1691518F
:103E7B00D22C90E5B9EB53103811370FA98081A9DB
:103E8B009C3104A22B391851E65921EA5D6AC8C945
:103E9B00C1840E801CE23E2007DA56B4035C6F38F7
:103EAB0049F22007FCA8C9EB6ECA43B4685D1089C0
:103EBB00FB3560CF2D92B17B7D71B6F725030C08D6
:103ECB0081110210001130200817192243F06743AB
:103EDB00E91E5B21788F4A9E931237BF8332B43130
:103EEB005E3CFF54EE7600DA21FE4B12626788C20D
:103EFB00B5625335DEAAAF2D88CDE46DAAD45B40F5
:103F0B000CBC2DA681E588E014219DE836B35B74CB
:103F1B00C555BBE4515C4061B2C711F6267694934C
:103F2B001BB1327616E626441143B33666BEA76143
:103F3B00FFA23587916B09E17166D752C5F7817482
:103F4B001104215001058002898006CC17005440D2
:103F5B000616A1761F2682F2C3719CA358D8671D43
:103F6B0058314F6071783B6232E7857372237E83E1
:103F7B00074AAAB1534CF2379B522A286264E5E5F3
:103F8B00372C001420925FA6F267A6411040C76E33
:103F9B007D4480EDD679622006FCD77F2D04035437
:103FAB000761F5D2331C04085C805CD3D4111CB4BC
:103FBB007BBA316A5E45816BB85707E5055E104DDC
:103FCB006146144F527632085D4E533AF4D448880A
:103FDB00321730A83AC6771703E07C2D600203B185
:103FEB007CCCFF9703696011306558341811205150
:103FFB0049C0761A428115DBC7199AD577DDB263B2
:10400B004F25292C371A3F102A65C13B9A3345920D
:10401B00F27DD6111B62811345B629E8E52104E137
:10402B0026725008BC040316E06AA6E2476DE28BC9
:10403B0060B838C4F44C17E50CECC63358776F6195
:10404B003007B236871AC1415E40816FA21B07252C
:10405B008678D8757791072FF226D02408C8E50506
:10406B006E9061C197271AF827D984761563672458
:10407B00A18ED5D58718510152C000D030005220E7
:10408B0005C030050421052B180033C0061551203F
:10409B0031058F05216C3F84629B081B4CB2900B42
:1040AB008914F3C172A11846A43815A7F825AED10F
:1040BB001622B263E0D26899E236515816AE0584E7
:1040CB0004C1410EE000412700B754087D34260F90
:1040DB00350409358C8B037443A06976040BCC042F
:1040EB004243FFD005B1C77BCCE3264F104D407741
:1040FB006F10A8173E59034D709408C8931C613379
:10410B00F801271710762A808BC7700CD4A00A3EB3
:10411B00E00338C41B4150010C50016F776BDB314E
:10412B002C18F81172B7204F4488875888751102E4
:10413B002BC88F33D002043100FDC88245F082D6E4
:10414B00F76B05B19515B0975E09774054498A1204
:10415B007238881571708156E17D0CE4361A292E60
:10416B0079364B2C50258E86373EC1219B851242CA
:10417B00064667728B43E06A36703890D301F3E2E0
:10418B005070127A08E6851694476E7265FBE60C42
:10419B0072C09AA3777FCA840107580362C6116F56
:1041AB005203E0C841304081E4A39424E126463910
:1041BB0007C299941AF12AB537106E829C30E086AB
:1041CB000E01390EA14C0E1176026138BAA702907E
:1041DB0003058A909DD4E006F82197FD388F19D0FE
:1041EB00187FFF08887FB56B82851468598903A1F6
:1041FB009673C1007339037539106CD98F13000C8A
:10420B0017916D76179773C97C463000714636CA85
:10421B00113B39A835068321C22363E3571AA31137
:10422B000748F184283225F9D4215B01413F200155
:10423B0040587E3A9722E0473817A07ABA44421D7D
:10424B00E06F36403D1DD5015A8860A839603D832B
:10425B009A508622C46403C7542F5D884287F307A4
:10426B00803007D2649BB9570775607AD958617350
:10427B00010506E1268230075C70A40B975716D117
:10428B003CCB59141248144F1A2D0C61339023A5B3
:10429B0008818B4359793020102D498136730C1AC4
:1042AB00A009624A9BBE797C39B09F39C0001F318F
:1042BB009E02824D87A2663A01A7BDA69E02E18EA1
:1042CB007211047E5901739903F179017A3A970FB0
:1042DB00D0A714A15D02917C525082D0778904F152
:1042EB00A77BFF0A063AA16803E30923E13F1AB251
:1042FB000531B01E59B44F1CB92A9939550E1414F7
:10430B0020422AF7253C93891572331A06A05A21AD
:10431B00196EF07401CA248C65756FBE18AB0B0651
:10432B009329A29B42D76EEC869A26DA461DF02A79
:10433B00DE2306BFAA9314569B1AE18D461A0C7501
:10434B0080944899A317C194575A10D7282B1D2036
:10435B0066E5B326D7D81040D72F2A104351EA93DE
:10436B00BC998057FAAB43C09C432A94564A102DF4
:10437B0009A562F093D174388A300A3C4A9CF791B4
:10438B0001FBC97C339009E7489E118713E55996C9
:10439B004322A7869589183100709701F3C888DAF4
:1043AB00B09F562010F63A97F5F9051801670311DF
:1043BB00048ED8968B404634550167FA9E8C48364E
:1043CB0095583695B17BA1B105E245164E451E7A3F
:1043DB005329C1E3780DBA98E006413160A1A65587
:1043EB00151AFF1B7945D6225CFA2AF3C69AAF221F
:1043FB005B85D0262D6AAB52162B008665AB1660FB
:10440B00B98722CE000B2E145CC9A8519D570237D9
:10441B00FA8C1B012B478AA43C3AAFDA38110F45B3
:10442B002B10784BD5A9024C2A06791006680B394C
:10443B00EDDA9B51292B7290A5EA3A813FF950D4C2
:10444B00482BD928AE06714B90338DBC098D026178
:10445B006FE32387EAF626D388874709877340AF34
:10446B00F6C1A8FBB904C3E2A67461A741729630EA
:10447B00E1189554A7046B1122D07CF89A080271AD
:10448B00B1CC670526000DFCD88F54000C822A890D
:10449B008F3100A0BB8233C007420222EE39975402
:1044AB0090BA0921B0071119234B14134963EBA1DF
:1044BB00A928E301A68A3785F784301B99E431409C
:1044CB00C273012181B321391AD32907B91A605359
:1044DB006756F6469363620368356F2C1094CF349E
:1044EB005640FFC0A40DC5413BF326506075FE77C7
:1044FB006F7940AC647AAC6FC20568CB05F1329C26
:10450B005D5B79C1A0AEB9C7A5B16287D64A14B1BC
:10451B00C5A462D804F01B065C90B8815481B30229
:10452B004820456BDD8A87909307315403B82808E0
:10453B0050805CED3B10DC28A4D3F94C3F7AC104CE
:10454B00112F00786FC1A0A417D092866B6F6EB23B
:10455B007462480B0B57037ECB1BF678AF019003AD
:10456B0030C00B814590A383BB0591017C99018ED3
:10457B00D52765B995211002FE198330010D101B4B
:10458B009F0FBB8256B008AD5B9FB66B1167000DDA
:10459B00B37BAF548008CC4B4E31BC9FF6090D3C1E
:1045AB00CC977E4910D1514463BCBB983154BE5754
:1045BB001B9CFA54075A8A5B1463A84455A2681BC8
:1045CB00298B379A323CC54301CE2B7994226D6CE3
:1045DB009250DC0375364065298C6041797A29024B
:1045EB0087F7FFC6B4B1928CCB887FAFA25B3C43FD
:1045FB007B4340B5CE88B713613862C0055FFB4C77
:10460B00CB1A4D2F2C10C9A9BF4FEABDC08987E427
:10461B00132B431034CA3AC0054C61A85C14B47711
:10462B008DC1709478356644714B876BB7EF7A6F99
:10463B004D504CC8257B5FEBA43E29084DC0B57887
:10464B003B2BB95781CA194DF0F2475C500CC8206F
:10465B00AC9FF009068CC9FFB1C568FA002D80C369
:10466B000AE1C5617C013CCC962250015593104B5D
:10467B00CC7C05F00BE46566702A8F8F188946ECAD
:10468B0011E9CC7C4B209FFD68059B4B9FA8BB1170
:10469B00422CC32BF800586C238C0BD0734903E1CD
:1046AB009CC5209B24D14291E9E71A554199FB9473
:1046BB00A079F3039E3055B4D873AC2A6E2CD07806
:1046CB003DD6BCB398591E427BF86741AAC7BD3C87
:1046DB0033AD41377ACA0C041D052BBE4842216409
:1046EB003D8BFF136F725009EC6BAC1501C0721050
:1046FB0006B232043C1A8EB486A5BAB99B4F302B46
:10470B00CC4A9B453D0447A97A038CB6890BCBB7A2
:10471B005C1447ED2659DBC23A3D102A102F47F99E
:10472B0026E0D804B858076ED2C2BDC941E50AA528
:10473B00D8D804463A9BE2DAC9B102CB1538815F6F
:10474B002B0759CB05DB803898600B9FC005604663
:10475B00C27CE13415B0CFEFF900308008B260179E
:10476B00057DAF341005928A10558CAF2E801497AF
:10477B009B35F67301F3C97C0FC00706C19E12511E
:10478B00CF01F0007720103FC0001D4B05B48BBA52
:10479B003E8711A46BD02C08031F4B6C053001AC6A
:1047AB007DAF0C9034758A45DFC4180F42B20E2DC5
:1047BB00213EA5A0E2B6D194123CE3E6017A968A9B
:1047CB00A131AA078A3B17FA3120AD2954618BD34B
:1047DB0029C98C13ABC2C847095C8CB29207A819C4
:1047EB003963FF623325CD38389307368AA3D8FC5B
:1047FB009CB1A226B1D201057CCD43ADCC35D026E0
:10480B005020C16F12BF7D7D333C2ABF6F920718BA
:10481B008001CD28D5534D14F40D038050E07CED71
:10482B00AC04D13CC7058E6E72CC620D2B50C0D739
:10483B00428DC21408B86A9DB58A7B01A6FC263D41
:10484B00CDD76046A64401055020C075CDC9435055
:10485B000AA170026650CDCEE8C2651A7161B91219
:10486B009E3D010F000C2D50005DE99575110482E2
:10487B000DD0541008D42710219003A6BD82030D30
:10488B00B013C100E169103257BACC57BB8648A7A9
:10489B000EE19DFD38039140106420DB7B0A0C6810
:1048AB00E0766E077D18A1043360D00FE00715503A
:1048BB00C432807C3DBE9F340E0C63BEA734C00156
:1048CB0003C148EBB8DB0D3D540FFD317A33BC2BE4
:1048DB003B4568512E4F0815A13A32AC34E8C24D16
:1048EB002952FF25127C4C383E115CFC774C1096FC
:1048FB004C4370A2EDA6CC1DA0DD375351DE9D229B
:10490B00A8495BC4445B7900056280D3B3F9E20626
:10491B0001C06FC24BCFAC4C684BC0493A395EF605
:10492B00B7CAFC26C23907B0D2DFB2296BB022C09E
:10493B0068DB264A766FFEDDE2071C2D35C041721F
:10494B00D0053A79C921F5B5B8C9E030C0A3DEEB83
:10495B00CA60E6D6D1347F63EDCAC56A2BC1352B4D
:10496B0050500225F007C19E9413189C75FDABC2E5
:10497B00890DDB700DD8800D2D9ED56616E37FC299
:10498B00B8543003C0000C37500197FD884A3E17CE
:10499B004150E4063D011B00B001300123B08254AD
:1049AB00B0A57E41B915B17C3450C475B6232C9893
:1049BB00CF05B1974120B914E1E48FD8A7F83EDBBE
:1049CB006DB9EF17810B0FF000FECE7C1300035572
:1049DB006C046BDE8F39300335DE0286E0D998DD4F
:1049EB00A707FFA910A93214670C1E9DF83912BD39
:1049FB00E73B5F253E26555F828482BE54C8BB5978
:104A0B0066313C07B46292A71519794B64C20C72DC
:104A1B0070751ED57F6E0D2B97AEC89ACEE16422B2
:104A2B00DF642207FCE76E1D20047FB09311E1BD0C
:104A3B006BF2263B8370FCDDDF049CEDB04214452A
:104A4B002D2BADCE05BAF907E01E0614162F7230CA
:104A5B000761D0DF228E0172D205C11ECC714DD5FC
:104A6B0028AC4C114E6173283E4679CC6E229C5873
:104A7B00DBEACD2808710FD643209C0FD5EACA3E3E
:104A8B0010A80E035C8001DEEEED5D80866076D6AD
:104A9B00025E035B5B07B754EB73500AD7300AA374
:104AAB00008EB356B9C2828E2F81C4246F0530504D
:104ABB00045F000D2180F17369042970A734C0DAFB
:104ACB00F4EE8104F1D9C58FAF58BC9E8348118C8D
:104ADB002A020E2F104BF1D9FDF8001F2B1022C00C
:104AEB008F21FF900199FB108F1DBAA810D81C1FA6
:104AFB00F1FD28FD18A10BA47DFD0D40E5324CE323
:104B0B00BA8F026A10DADA0CA89EEBFC2886280E04
:104B1B00325453724D15223C00B145A0C003050D14
:104B2B001EF09050219C1858283C2441224EC2184C
:104B3B006BD6283C8810A3C1182C246404A9F0025E
:104B4B00C438254BB2B8903225943C7258BC8419AA
:104B5B00938533183080C8C4F9524C4D9E3D617C0F
:104B6B00F8E013062C393E5DC60C56B3504E980E2A
:104B7B0060042B5302D09C1A4F54A8C49A156B0790
:104B8B009E43BC3C29AA94459E9A3B4B94E80288D1
:104B9B004B93AA2A7A4279D2B30917AE35F374E94B
:104BAB0082014358187FFE7409C3F649872182B8E6
:104BBB0000C29B16D0E2C561E6087A6255C564CA8D
:104BCB009385C21852A7AD8A213EA108AA5387AF7D
:104BDB00CF3061F486595BF509D99A434A73E102E8
:104BEB00A566FFE9C756B7F63CFCA7D2EE4A695358
:104BFB00D7A4FCA486A026C55B37095DE7DA2E5641
:104C0B00D4225FD51A5DBA568B58ACCBC09E5D06CD
:104C1B00168BD1190408300146220E41BE83479FE3
:104C2B003E3D1103D3DDBF5749437DFA19305CA4D8
:104C3B007CB826E580003372A07FE0861FB0B20EF1
:104C4B000BF8A63B0F3D22B2F264BE0712512908A6
:104C5B0029D2336295010F3C109A09D3A362BEF996
:104C6B002678C00A605A40443EF5D8C330AB0C528C
:104C7B00F24412F5A8B821040F279841C4166EF818
:104C8B0002AB0C369CAF3E36089461BA1886BCC09A
:104C9B00BA218F8C8132854452698D029F8C0124FD
:104CAB009008A0920009A2CC68490F0AFA458687A2
:104CBB00B0882886847EC0E2878D0CD2B2A01848BB
:104CCB00F8684B29351A133B164C2A292B0F86C82B
:104CDB002318A6602AAA833D65FA6034A180E8AC4C
:104CEB00A740FF7DFA4026206A82E54F168680AAF0
:104CFB00372E2083EEC042318BAC069EC460212937
:104D0B0018A01002062184F80383D4BCB0AC2C4D40
:104D1B006B92830BD3B8EAE0AC12FE0064A79AFC4B
:104D2B00024CB3C89E308CB13C2EED0010C720B3A3
:104D3B000DAB5F2FAB690EB60A1D4205D960000D96
:104D4B003664E5580C2FD4048BAC35C650E3622780
:104D5B0039862D36A5BA60F8B60B5967C5C0B12692
:104D6B00C2126332E16A807755188A0B6D975D9A90
:104D7B0031C00037529CAEBAEBB4C38E3BFDDE1391
:104D8B0001BC198AB860C71927982F8702F8E53735
:104D9B0008233CACD13E200DCC2080FF0064A082C8
:104DAB000C8268D2134F20DECF4334747410C2943C
:104DBB0012446F065D062639C20C2AA860620F6783
:104DCB007C60C41B4C48A9829B578078808973A850
:104DDB00E00219644C8F61F51E8001911B169899A6
:104DEB00668FFF076059E31A474444E59061C60A92
:104DFB00C98664F01A490FBCC6CAC9278D84E34C17
:104E0B00290792A06D0904D232212CBCA4C0BA97F9
:104E1B00C4F4E0028BDCCC92EF033A8AE3CDBEC73D
:104E2B00C6EE073A4D4A292139E4689485421CC8DD
:104E3B00A9263D1D9589A8CBF24454D0C663EA2C14
:104E4B008F971C602627395AEA2DB01A2A85AF5046
:104E5B00B886BB540E66CADA6413728528C1D42691
:104E6B00224B6932789F85C1550CBAF8E35CB400CC
:104E7B00E929B130748D4C90394A83E2D2AE520B92
:104E8B00F702E785FA768ECEBCF2C20B5BEB703580
:104E9B008C9EE6F0548EDFADAD2DB2B04CD3CB541F
:104EAB00697BAF43901A50BDCAD39AB8C020F8B3F0
:104EBB007CAB83AD9E328D175E9EF2404E1D62A180
:104ECB008CC8FC8202DD215981001630046228084F
:104EDB00E96940C63E24A21B98283D0FE043CCDE77
:104EEB0023B4FF1E8D28121C88CE762478B3008441
:104EFB00A068F8A1C0851C6833F5CC20472919217F
:104F0B008054C61F0F2142065C8BD87968B082157E
:104F1B003C606337A3C20C74964118B2F0435A3B02
:104F2B0010D20240854460C145240C00D336208347
:104F3B000C28F166200206228C0142E9AC21485A6A
:104F4B00F1DA1A4616B6218D2D0603D19B45D4787E
:104F5B00B618C0C18D09119C41A8D43602C0492195
:104F6B003F0858442272012445E44D702C88077E7B
:104F7B0080A5380632214693C19C0EA725B2848E9C
:104F8B000540288A18E430B9D7C1C09194ABDCF442
:104F9B0086B0284309EA2632910DA758E0800E749B
:104FAB000016CCD85C303ED001521DEF7DA8838F0C
:104FBB000A8423085BB1CA56B1DBC4F4E4F04A7728
:104FCB00D5A0093D090362FC32CCBFA48B27D46A60
:104FDB000CF20633BFD860665C43E082664E079DD9
:104FEB00E621FF0B0A6749D763541397F905B356AC
:104FFB0098098DF7C89518B5608B35DF1A1FB7B8B0
:10500B00D22A656DE602DF0B83B966A596765685C7
:10501B0059FD8357646A5916F73D670D0F89D9DC23
:10502B00B223300D26EC823E430F8D4454844C5CEE
:10503B00200805BB60240A2A1D84A22707396BC1EF
:10504B007DA6038DAA9150044A48897570E89E8EFF
:10505B0082870A8850490CC16385171A313D3098F5
:10506B00DB48E1A3A1F08C280B47C80044D50322F1
:10507B002BC0A0082F84A11529868818A48847FD6A
:10508B00E1C01A2AEA202B08F566572B0211DDE343
:10509B004515AA246C46226342DE2610BD9D8D8DDC
:1050AB006E4C9BDFD636108218F26F0FA18044E84E
:1050BB0044911F58249082535B21FF56543999E435
:1050CB004886CC1B0C9602930FD880199FA4895E3F
:1050DB0031991342F98419FB74C63E4509A89A20ED
:1050EB006508FF7248D44B02C54AA950257AB11402
:1050FB008EFC6E55135C6E827776514D2F7F399BEC
:10510B00782606038C11D61C780205F4B972573C2D
:10511B0029CEF460905AC1C07232F28BD56E4A150B
:10512B00CD78F1057DA69A437097C72A5C4D8558BB
:10513B00AC79CA611AC305D624A77DAF945FAF863D
:10514B00C9AA7E4A6692F02A8E3985124DF7C1EFB5
:10515B00029E904155314481F04E54254B9D810B5D
:10516B00BE80081890A8082EC80492961A45249A57
:10517B00171A56A442CE1A408C84750C6458310F02
:10518B0014674488906EE740F34D8F151A70DEF963
:10519B00C0208308064FCE8A744388C9483C91E0EF
:1051AB00E887AE762313143525D0A8804E493801F5
:1051BB002B202C453DEA41057E481F183060C51E4B
:1051CB00A2C2885CC0C50359272B64F46256B5BADA
:1051DB0085435E80045E2D501B05B70583907520BB
:1051EB0025C9FF8817D3CA02BCC5E0707E44C8E04E
:1051FB00E25AC8BCE5CD4B6B45934292D214667410
:10520B00E0922C08CA1030090467B4040A507046A7
:10521B00E838C9930F7CD6063E999C4C2AE9C8C442
:10522B007E122636585C544C45A914B94B1042F9E2
:10523B004330845006428F2A0FB6124371B6F92EB3
:10524B00BB04132F7A818D70E750CBE52593973CE8
:10525B0009062D7DF2E8E351AA52BDC4346F4AA76B
:10526B004D79C1A0B5D12CCE70C9E59774E9CA2D83
:10527B00989B0B63AA59932608B7B63CF1E561F0EE
:10528B000208D674E039C1F165680433AE9A74E054
:10529B0035B59DCC84B903312C9CA1811A64D904FA
:1052AB004CEC1E955A41A3E6BD40057804229FCADB
:1052BB0002C42266804A3838E210290D3D23E0E211
:1052CB00DCCAE41E1A7A28673FEA590B8161D009C0
:1052DB000203DE5E3410862438032DB02CBF36BAA1
:1052EB000131FF681C840C3040C43DC2282210A140
:1052FB00061A1F48C03B85C11420DC4294928CC215
:10530B0029415256BEC8471D1F528F40BEC01BE3DA
:10531B0036722D6DC16D051949DD98BCA48EA0C4E4
:10532B00C724F8E392E49A91211D00DF74CAB241BD
:10533B00DE0913672C0E066270A46C8EC214077CF8
:10534B00C05650B0014E82F2BFA5D744003E811C1F
:10535B004EE62CD9BDC684197996D4ED60E91E773B
:10536B00758527C11BD5A886C72D2E04972D8B06B7
:10537B00E01C942BACB51447B3C9F2A6E9E0F7AC2B
:10538B00C2FC9927C0F34B395FA912DDD5B204A239
:10539B006EB5FBC852A8B82B2BBB5CA80914D2273F
:1053AB0077395CC059F3EA9E38BB62EBAA94453857
:1053BB00B15E4C34FFB7AB5DF9D2EC35989E185A01
:1053CB00AB4D5411C83AE2854FC0509F222BCEA053
:1053DB00E2150841C144C00068885B3D56E0997DE9
:1053EB009196FF838A25220535BBD9C91E4A42A651
:1053FB00B520112698EF03AE2D464FACFE020338B5
:10540B002A8B739F12A13EA00892887E14C7D3509B
:10541B0095881443E759314677C64568CC8C012EE5
:10542B00E5D0036680D148DCA1A0E98722308A1041
:10543B008376376CFDE3899981B5F203FE0FC8497A
:10544B00642C232D8901FE03B23578A3999312099D
:10545B00F088AFC18295D3929728091258032991EE
:10546B00390444930B4808F25A039348139DF39362
:10547B0097A83AC77989A2183A9928840F28143922
:10548B00B033136C9DA6EB00E422973DA90947525C
:10549B0041A97B8A4D281DB6D83AAE730B18C88329
:1054AB003AF83A512B156E513BD828BBB3E33CCF9E
:1054BB00EB9ED4D826BE980B6F4A8DCA58AD71C9D6
:1054CB0003BF380BBD2BBDDC5101E4EA00DDD0ADD1
:1054DB00A938BB60C8835589BBF61184331CADD288
:1054EB003836FF5EE28C44EB1E18E489481384A225
:1054FB00080659AA01EE798DF6299431CCA74CC92F
:10550B00AE26902D18A89FDDAAADACF8A70362B606
:10551B0002D1A0A3B28202D0B60088BE0AE0BEDBE5
:10552B009B3E0D7AC4FCCA2230003E289A804870FC
:10553B002A8B02865360B00BAA2FEFCB0A9AF290FC
:10554B001C0086FA7229602005F4631A02D38A982C
:10555B00828F079237440804958006F423A11C68B8
:10556B0001638804A97ABF846A81AAC9AFFE0006C9
:10557B002E4A0173438F207A001AA8800188192FB5
:10558B001AA9FE1B24A3B1AA21711B92F30027F9C0
:10559B0038EB183222ABC003809B84100812808832
:1055AB0028F11B0FC02A093C880EB4409D0B390F04
:1055BB00202F452A89B8BA80A183820E088615242C
:1055CB0041C21A97C8DA13E4822C9E1006E75941A0
:1055DB009998C1116486866486BD7A1D0000805639
:1055EB00D241FF7E7197CBFB3A59C19F3F94B4B325
:1055FB00831F3BACB5CFFB35607B42DAE0B3941035
:10560B0014CCF08B2F9C94E7E03B2E440C59B19DAE
:10561B0045AB0139700D3594A6784996E5B9966975
:10562B00DA4218C8B5352C3593E425782942DEDAF1
:10563B00267839437CD2C962E31DFBC995B6888EA7
:10564B000271BE7EA14588D92928829194A0C4827B
:10565B00BA2F2930829E4203837BB825B2821580F4
:10566B00A207688164488601112A6B9BC5658B1064
:10567B005E5CA916F03095980F60804560B884E9A0
:10568B0050B7F7A89AFA9028ACF8441212226CC3C0
:10569B004B0029821F1031B5640018508323519899
:1056AB0066F421F5A001EEE317FD4B096BE43F1601
:1056BB00692B8BF801B6691B23130816D0A388300E
:1056CB0092C11992B63A3DBCD29202099C2A83A38D
:1056DB001848AB218988918B47B32A233840247B08
:1056EB00E4C0FF8CC8C798982C31F8A47F54944B16
:1056FB00D99C3D09AC9F40AE2BE889388B1C4B1ACB
:10570B00C1C5599C4F8AC889FC03D3D9411EB4C368
:10571B008C448B9EEC9F00CA9FD0224945634392D9
:10572B005C4257E3BBC5E11E563997A88C1EEACCE9
:10573B00B4E519C456DB8C5EC2C39EE43C5AE39EAF
:10574B00B2731FCA8081CB33C2E782173ACC3C6C51
:10575B009925E7EAC3E4C9AE05DD95BA20B6BFCB00
:10576B0041A98C0EB3C9377EF1A2F2C290FA13B0E5
:10577B008B9AB70BE8CA9841A8F5A381ECBB221111
:10578B00C9850989B116F083F45045172013EE38FB
:10579B002A2A70B00A1599FD38B80B4AC653DCA9F2
:1057AB000E591A1880B77EB938EF80B86B4B095B6E
:1057BB00540FDE9B010F5945C4E44AF40086FB8865
:1057CB00A128FD810E8B81FB4ABFCA9C0F1D48206F
:1057DB00B9DC4CCE241319F885311D24B2AA12233F
:1057EB006301FF30F94675ECB11F1329FE132B9A99
:1057FB007B0816488838880816E8BFDA5C13361918
:10580B00C7C12988D14413348223813A9C7B04CEAF
:10581B00C502B30E100328883AE3848942B814E812
:10582B00DC934A1A0A5B39349EE8801034C18564D4
:10583B008112840966C0131CCCCE8A2499EEAC0964
:10584B00BC530B65CA9433749FBDD3C27781972C1D
:10585B007CD55C838DE74AB6DC118E3A0826BB38C3
:10586B001628801EDBB243EED996F2A90C155042D6
:10587B00FFBCCF9FF3BCE0F2B48BD480333C066FFC
:10588B00008770080751F8065BB0066EE0065A8871
:10589B0085A4F4A5E2D0837C31007751863FAC0A16
:1058AB005F40D77485C33C10BB99BC55BF74368819
:1058BB007192217D0F95EA452B6801781331DCD36A
:1058CB00A0B27437FC3B0F2B40A9A552CBEE7BA2A9
:1058DB009669817E7988C9FCD71F3921187A381AC5
:1058EB005D80FF1AD35015990F2B4001ADE0D0FC12
:1058FB0082811538382A10918633AF6684011042A5
:10590B0052216202188A361A49CB4AC410CD04D3ED
:10591B00CF3C03825A92B711C01F384DD4DC0ED640
:10592B0014A90D749BB27A932DB00E12C0120F10E6
:10593B00882361013D25811F90ABBB42080E34C704
:10594B006D2C08A1DD0EBB3A12B1DAB99738B40F42
:10595B00883AAD8DC198F82C4D650A4AB580D69022
:10596B009F4DFA93A9630101C889AB93833298D0F9
:10597B00ED7C8FAEC30CC4C8A666BD48CE7B57C7A3
:10598B0093A55DD93A3B248ED0E827D40149572102
:10599B00361FFC55DB12503524BD4F93A5C00D0DA2
:1059AB00F2740B28801761BB4FDDF9563DA8866A50
:1059BB00C8065768865828854F300553A0050485BF
:1059CB00D5AA7083EA30807731CF8FAC8C27808259
:1059DB0049F2C24AA8AC937C8F66A3009239C414D7
:1059EB00AAD7FF0B5A520FC157CCB4227E25197B75
:1059FB002DCB9CE1997D03860CD2A917C58AAAB140
:105A0B00821B98AA898B3018B8841FE818E985582F
:105A1B0028CA018175BE874D096AD48AF9120F61B4
:105A2B005409A4E1B622E828212A025070D2278D0E
:105A3B0022130B3160609A3E08921C7D38F100AA4C
:105A4B00148159CE54A3ED5023BCD11B335992D39F
:105A5B00141991C98EEEB8DA3E7D93A4C502428A21
:105A6B009B3848ABB1215A2A835AB7C160D2DC822A
:105A7B0038C08E0D5CAB38DDB297F824D089BAA54F
:105A8B00B3BAB7182C58483CD618036649489C78CB
:105A9B00339B78899F4833CF7909A278DBACBBACB9
:105AAB003EE30C1F5443D3918C62AD0CAD10E2E876
:105ABB00E8A5FE918CAC785C3C0C8B218034645354
:105ACB0062630DA023A450BE3356A51C5C958001C8
