:100000000224B3543A00563A00222202298DE4FF1A
:10001000FE120389600C0FEF70010E09E970F20AFD
:0900200080EF22022C38D20022EC
:10002B000220F0EC4D6011E8497017ED33EC33040E
:10003B00600DE4FCFFFEFD22E933E8330470F802A7
:10004B00027E12024958046009E4CC248150062830
:10005B005009020288284003020285C0E0EB4A7077
:10006B0044B98006D0E0FB020274EF4E701CBD80D9
:10007B0008EBFFEAFEE9FD80EBE98DF0A4FEE5F06D
:10008B00020117E9CDF9EAFEEBFFEF89F0A4FCE5DD
:10009B00F0CE89F0A42EFFE435F0CD89F0A42DFE2F
:1000AB00E435F08067EF4E7005BD80D780C3EF8BD2
:1000BB00F0A4ACF0EE8BF0A42CFCE435F0F8EF8A56
:1000CB00F0A42CE5F038FCE433CB8DF0A42CFCE54C
:1000DB00F03BF8EE8AF0A42CFCE5F038F8E433CFD3
:1000EB0089F0A42CFCE5F038CF3400CE89F0A42F96
:1000FB00FFE5F03EFEE433C98DF0A42EFEE5F039AA
:10010B00CD8AF0A42FFFE5F03EFEE43DFD33D0E0B9
:10011B00FB50070BBB000F020288EC2CFCEF33FFEC
:10012B00EE33FEED33FD020260020288EC5D0460EB
:10013B0005E85904700302027E120249580460F666
:10014B00EC4860F2EC7004FDFEFF22C860DB2481FA
:10015B00C85009C398600250060202859850CAF530
:10016B0082E9294B4A7005AB8202027475F0007C60
:10017B001A7880C3EF9BEE9AED99400DC3EF9BFF6E
:10018B00EE9AFEED99FDE842F0DC23ACF0D0E0FFF7
:10019B00D0E0FED0E0FDAB8220E7101BEB60BAECA9
:1001AB002CFCEF33FFEE33FEED33FD020260E80370
:1001BB00F830E705C0F075F000EF2FFFEE33FEEDE2
:1001CB0033FD40B830E7C280AA75F020800E75F081
:1001DB0010800575F0087D007E007F003392D530CE
:1001EB00D5031204A0EC334010EF33FFEE33FEEDDA
:1001FB0033FDEC33FCD5F0ED22E5F0247EA2D513D4
:10020B00CC92E7CDCEFF22EDD2E7CD33EC3392D5B6
:10021B0024814006E4FFFEFDFC22FCE4CFCECDCCD6
:10022B0024E0501174FF80EDC3CC13CCCD13CDCE95
:10023B0013CECF13CF0470F030D5DE0204A0E9D279
:10024B00E7C933E833F892D5EDD2E7CD33EC33FC85
:10025B005002B2D522EC30E7100FBF000C0EBE00DF
:10026B00080DBD00040BEB6014A2D5EB13FCED9253
:10027B00E7FD2274FFFCFDFEFF22E480F8A2D5749B
:10028B00FF13FC7D80E480EFE709F608DFFA804678
:10029B00E709F208DFFA803E88828C83E709F0A336
:1002AB00DFFA8032E309F608DFFA8078E309F20817
:1002BB00DFFA807088828C83E309F0A3DFFA806415
:1002CB0089828A83E0A3F608DFFA805889828A83C1
:1002DB00E0A3F208DFFA804C80D280FA80C680D48B
:1002EB00806980F28033801080A680EA809A80A893
:1002FB0080DA80E280CA803389828A83ECFAE493C5
:10030B00A3C8C582C8CCC583CCF0A3C8C582C8CC52
:10031B00C583CCDFE9DEE7800D89828A83E493A372
:10032B00F608DFF9ECFAA9F0EDFB2289828A83EC5F
:10033B00FAE0A3C8C582C8CCC583CCF0A3C8C582DC
:10034B00C8CCC583CCDFEADEE880DB89828A83E414
:10035B0093A3F208DFF980CC88F0EF60010E4E60BA
:10036B00C388F0ED2402B4040050B9F582EB2402EB
:10037B00B4040050AF23234582239002E373BB01E7
:10038B000689828A83E0225002E722BBFE02E32227
:10039B0089828A83E49322BB010CE58229F582E5ED
:1003AB00833AF583E0225006E92582F8E622BBFE6C
:1003BB0006E92582F8E222E58229F582E5833AF502
:1003CB0083E49322BB010689828A83F0225002F7D1
:1003DB0022BBFE01F322F8BB010DE58229F582E574
:1003EB00833AF583E8F0225006E92582C8F622BB52
:1003FB00FE05E92582C8F222EF8DF0A4A8F0CF8C80
:10040B00F0A428CE8DF0A42EFE22BC000BBE00293A
:10041B00EF8DF084FFADF022E4CCF875F008EF2FF0
:10042B00FFEE33FEEC33FCEE9DEC984005FCEE9DAD
:10043B00FE0FD5F0E9E4CEFD22EDF8F5F0EE8420C9
:10044B00D21CFEADF075F008EF2FFFED33FD40072A
:10045B00985006D5F0F222C398FD0FD5F0EA22C2D0
:10046B00D5EC30E709B2D5E4C39DFDE49CFCEE303E
:10047B00E715B2D5E4C39FFFE49EFE120415C3E457
:10048B009DFDE49CFC800312041530D507C3E49F4B
:10049B00FFE49EFE22C3E49FFFE49EFEE49DFDE489
:1004AB009CFC22EB9FF5F0EA9E42F0E99D42F0E8BE
:1004BB009C45F022E8600FECC313FCED13FDEE132B
:1004CB00FEEF13FFD8F122BB010DE58229F582E582
:1004DB00833AF5830207985007E92582F802050253
:1004EB00BBFE07E92582F80207A4E58229F582E520
:1004FB00833AF58302050EE6FC08E6FD08E6FE08E6
:10050B00E6FF22E493FC740193FD740293FE7403E3
:10051B0093FF22E6FB08E6F908E6FA08E6CBF82299
:10052B00E493F8740193F9740293FA740393FB2226
:10053B00ECF608EDF608EEF608EFF622ECF0A3ED7C
:10054B00F0A3EEF0A3EFF022D083D082E493F60871
:10055B00740193F608740293F608740393F674040B
:10056B0073A8828583F0D083D08212058312058312
:10057B00120583120583E473E493A3C583C5F0C509
:10058B0083C8C582C8F0A3C583C5F0C583C8C5821F
:10059B00C822D083D082F8E4937012740193700D4B
:1005AB00A3A393F8740193F5828883E47374029385
:1005BB00B5F0067403936860E9A3A3A3A380D8EFF7
:1005CB004E6012EF60010EEDBB010B89828A83F046
:1005DB00A3DFFCDEFA2289F05007F709DFFCA9F054
:1005EB0022BBFEFCF309DFFCA9F022E709F608DFCA
:1005FB00FA807BE9D39850F3E92FF9E82FF819E744
:10060B0018F6DFFA8068E709F208DFFA806080E30A
:10061B0088828C83E709F0A3DFFA8052E309F6089E
:10062B00DFFA804AE9D398500EE92FF9E82FF81931
:10063B00E318F2DFFA8037E309F208DFFA802F883C
:10064B00828C83E309F0A3DFFA802389828A83E01B
:10065B00A3F608DFFA801789828A83E493A3F20852
:10066B00DFF9800A89828A83E0A3F208DFFA0207A6
:10067B000880B180F980A580C680DC80F180738012
:10068B0010808380E98087808780D980E180BC805F
:10069B0073D3E998EA9C5039E92FF582EA3BF5834D
:1006AB00E82FF8EC3BFC0582D5820215831582E41A
:1006BB0093C8C582C8CCC583CC0582D5820215836D
:1006CB001582F0C8C582C8CCC583CCDFD9DED780F4
:1006DB002E89828A83ECFAE493A3C8C582C8CCC561
:1006EB0083CCF0A3C8C582C8CCC583CCDFE9DEE7D9
:1006FB00800D89828A83E493A3F608DFF9ECFAA9CB
:10070B00F0EDFB22D3E998EA9C5038E92FF582EA09
:10071B003BF583E82FF8EC3BFC0582D58202158371
:10072B001582E0C8C582C8CCC583CC0582D58202B0
:10073B0015831582F0C8C582C8CCC583CCDFDADE41
:10074B00D880BC89828A83ECFAE0A3C8C582C8CC66
:10075B00C583CCF0A3C8C582C8CCC583CCDFEADE89
:10076B00E8809C809888F08E83EF60010E4E608D40
:10077B00ED2402B404005085F582EB2402B404008E
:10078B0050E123234582AB832390067C73E0FCA3CB
:10079B00E0FDA3E0FEA3E0FF22E2FC08E2FD08E29D
:1007AB00FE08E2FF228E2C8F2D8C2E8D2FEF242214
:1007BB00F531E43EF530EF240EF533E43EF532EF40
:1007CB00241AFFE43EFEE52F2408FDE4352EFC122F
:1007DB002042E4FCFD1211FB1211671211FB1205F2
:1007EB001EE4FCFDEB252FFFEA352E12115F1211D3
:1007FB00FB12050278101204BF78831211E5787D85
:10080B00F608EFF6F47002EEF46003020C0012111E
:10081B00DEA3A3E0FEA3E064504E600302092C129A
:10082B0011D112108EFF9000E11211DBE0FFA3E05B
:10083B009000E5CFF0A3EFF0E4787AF6787AE6FF54
:10084B00C39405503B1211D11210D8EF1211231281
:10085B00108EFFC31204AE70221211DEE0FEA3E075
:10086B00FF787AE6FD12119AE0FAA3E0FBEFB503ED
:10087B000AEEB50206787CA6058005787A0680BC60
:10088B00787AE66405703C1210FBA3E030E134E4A7
:10089B0008F6787BE6FFC39405501EEF1211231266
:1008AB00108E1211A8700D787BE608F61210BB742F
:1008BB0001F08005787B0680D9787BE664057003B0
:1008CB00020C00787CE6D394044003020C00E53163
:1008DB002404121089FF74FF7B001211AB500E120F
:1008EB001120F58312056C0000000080341210FB00
:1008FB00E0FAA3E0FB30E20D121120F58312056C38
:10090B000000000022EB30E1201210B8E0FF640180
:10091B006022EF601F121122F58312056C0000009C
:10092B00007B051211780212171210FBA3E020E4D2
:10093B0003020C001210FBE0FCA3E0FDEC54F013DF
:10094B0013543FFF7E00787FEEF608EFF6C3E52FDA
:10095B009F7882F6E52E9E18F61210B8E0B40900C7
:10096B004003020BF9900977F828287302099202C9
:10097B000992020A23020A65020BF9020B02020B0F
:10098B001A020B84020BCAED30E1761210FBA3E0C6
:10099B0020E46E1211D112108EFF787CE6FB12113F
:1009AB0023F5831211DBE0FEA3E0FFEB12119AEEAD
:1009BB00F0A3EFF0EB1210BB7401F0E5312404123D
:1009CB001089121107121080FFEB1211B312120DC6
:1009DB00EB12113312120DE42FFFEE34FA121170D9
:1009EB0078A912053BD2AF7D1C7C007F127E0012D2
:1009FB00121712112F12108E12109B7402F0020B91
:100A0B00F9121120F58312056C000000007B051212
:100A1B001178121217020BF9787CE6121114F58378
:100A2B00C083C0821210DAC00012118FD0001211D5
:100A3B005AD082D0831210821210E6A3E030E0026B
:100A4B0080231210851210C9C31204AE6003020B6F
:100A5B00F91210B87403F0020BF91210851210E69C
:100A6B00A3E030E03A787CE6FA12111412108E24CF
:100A7B000112116DEA121114120C01787CE6FB12B3
:100A8B0010BB7404F07D147C007F117E00121217D2
:100A9B0012112F12108E12109B7405F0020BF978A5
:100AAB0082E618467003020BF9787CE6121114F5F6
:100ABB0083C083C0821210DAC00012118FD00012D3
:100ACB00115AD082D083120547787CE6FB120C12A8
:100ADB00787FE6FC08E6FD787CE6FBE4F539AF2D84
:100AEB00AE2C120C1E787DA60608A607787C121178
:100AFB003F741EF0020BF912105BFFEB1210CDC30B
:100B0B001204AE6003020BF9787CE6FF020BE3786C
:100B1B007CE6121114F583C083C0821210DAC00078
:100B2B0012118FD00012115AD082D0831210821260
:100B3B0010E6A3E030E02E12111312108E121107E3
:100B4B00120C011210851210C9C31204AE787C70FE
:100B5B000BE6FF1210BB7409F0EF807C1210BA7415
:100B6B0008F0020BF91210851210C9C31204AE70F3
:100B7B007D1210B87407F08075787CE6121114F5AD
:100B8B0083C083C0821210DAC00012118FD0001202
:100B9B00115AD082D0831210821210E6A3E030E0FB
:100BAB004D12111312108E121107F58312054712F5
:100BBB000C12787CE6FF1210BB7409F0EF8019124F
:100BCB00105BFFEB1210CDC31204AE7021787CE6E4
:100BDB00FF1210BB7409F0EF1210BBE4F0EF12110F
:100BEB0023F58312056C0000000078A8760178A825
:100BFB00E66002E4F622F5831205477D147C007F44
:100C0B00107E00121217227D147C007F107E0012C2
:100C1B001217228E348F358B38E538B40503020F4B
:100C2B00A8E539703FE5352422FFE43534FEEF2D7E
:100C3B00F53DEE3CF53CFAA93D7B01C001E538756D
:100C4B00F02DA42419F9740035F0A801FC7D01D016
:100C5B00017E007F141203631218C21218B5FF1223
:100C6B001931801085343C85353D1219311218B578
:100C7B00FF1218C2F58312054778951218E8754ACA
:100C8B0028754B1412104D600678B276018049120C
:100C9B0018EA754A28754B1912104D603B78B21241
:100CAB0018E8754A28754B1D121054600678957616
:100CBB000280251218EA754A28754B2412105460CD
:100CCB000280111218EA754A28754B2A1226CBE9B5
:100CDB004A4B60047895760178B2E660451218EAC3
:100CEB00754A28754B2D1226CB89828A83E582455E
:100CFB0083602FE4F67895760374072582F582E4FA
:100D0B003583F583E0FFB43104C2028006EFB430C3
:100D1B0002D202A2029200120026A20292A6A20204
:100D2B0092A47895E6FF64016008EF640360030208
:100D3B000E787BFF7A2D797C12000E7889A6060837
:100D4B00A6077BFF7A2D79F012000E788DEEF60850
:100D5B00EFF6788A267988F718E63E19F7E53970A9
:100D6B000378B0F612199F78897A2D797C1218D1F5
:100D7B00788DE6FE08E6FF121940FCED788A7A2D95
:100D8B0079F01219227888121900788D1210157AC1
:100D9B0028793512274278A5E6FE08E6FF7C007D10
:100DAB00641204157B017A01795B75430A121F9457
:100DBB007B017A01795B12000EAB07745B2BF5821A
:100DCB00E43401F583742EF00B78A57C007D64125E
:100DDB000FB07A28793E12274278AE120FE378AE25
:100DEB007C037DE8120FB07A287947122742789E50
:100DFB00120FE3789EE6FE08E6FF7C037DE8120403
:100E0B0015AE04AF057C00745B2BF9EC3401FA7B57
:100E1B000175430A121F941219A6754301754401FB
:100E2B0075455B7BFF7A2879501227421219A62051
:100E3B0002091219657A28795980071219657A28DF
:100E4B00796A122742788812103B1218C2F583C0B8
:100E5B0083C082121971C00012197DE4FCFDD00011
:100E6B00121915D082D083120547020FAC7895E684
:100E7B0064026003020FA87BFF7A3279DF12000E47
:100E8B00788BEEF608EFF6788F767508763024308F
:100E9B007888F6EE347518F6E539700378B0F612EB
:100EAB00197DC394E8EE940378935007A60608A621
:100EBB0007800576030876E812199F788B7A3279CA
:100ECB00DF1218D1121949FE121940FCED087A33C2
:100EDB0079541219227894121900788F1210157AFE
:100EEB00287973122742789412103B121949789182
:100EFB00F608A607020F847891E6FE08E6FFC37892
:100F0B009096EE18964003020FACC308E69FFF18AD
:100F1B00E69EFE7893F608EFF6D394E8EE94034042
:100F2B00061876030876E812199F121956FF789166
:100F3B00E6FC08E62454F974333CFA7BFF121940A3
:100F4B00A805FC7D01120363121956FF2436FDE43C
:100F5B003EFCE53B2DF582E53A3CF583E4F0EF24CE
:100F6B0014FDE43EFCAB38AF3BAE3A12153512190B
:100F7B0056789226F618EE36F61218C2F583C08311
:100F8B00C082121971C000121956FFE4FCFDD0008B
:100F9B00121915D082D083120547020F02E4FEFF0F
:100FAB002212197D22E6FE08E6FF120415AE04AFED
:100FBB0005EB7C00245BF9EC3401FA7B0175430AE9
:100FCB00121F94E53B2436FFE4353AFE7543017559
:100FDB00440175455B7BFF22E6FE08E6FF7C037D43
:100FEB00E81204157B017A01795B75430A121F9491
:100FFB007B017A01795B12000EAB07745B2BF582D8
:10100B00E43401F583742EF00B22E6FE08E6FF7B39
:10101B00017A01795B75430A121F94E53B2436FF75
:10102B00E4353AFE75430175440175455B7BFF2240
:10103B00E62414FD18E436FCAB38AF3BAE3A121580
:10104B0035221226CBE94A4B221226CBE94A4B22F8
:10105B00E5312408F582E43530F583E0FCA3E0FDAF
:10106B00A3E0FEA3E0FF787CE6FB75F02DA4241231
:10107B00F582E43400F583120547E5312408F58247
:10108B00E43530F583E0FCA3E0FDA3E0FEA3E02212
:10109B002401FFE43EFEE43DFDE43CFCEB75F02D4A
:1010AB00A4240AF582E43400F583120547787CE624
:1010BB0075F02DA42418F582E43400F58322FF7813
:1010CB007CE675F02DA4240AF582E43400F583E068
:1010DB00F8A3E0F9A3E0FAA3E0FB22FF787CE6FBA0
:1010EB0075F02DA42412F582E43400F58312054724
:1010FB00E531240CF582E43530F583222401FFE43D
:10110B003EFEE43DFDE43CFCEB75F02DA42406F51E
:10111B0082E4340022787CE675F02DA42400F5825D
:10112B00E4340022787CE6FB75F02DA4240AF582CA
:10113B00E4340022E675F02DA42417F582E4340084
:10114B00F58322E53C2404F582E4353BF58322EB61
:10115B002FFFEA3EFEED39FDEC38FC22120502EFC3
:10116B002406FFE43EFEE43DFDE43CFC227F047DCF
:10117B00147C007E002275F02DA42416F582E43435
:10118B0000F583227881E6FE08E6FFE4FCFD22757C
:10119B00F02DA42404F582E43400F58322FFE4FB54
:1011AB00FAF9F8C30204AEEF75F02DA42412F58200
:1011BB00E4340022E0FFA3E0853C82853B83A3A3BC
:1011CB00CFF0A3EFF022E533240CF582E435322285
:1011DB0012054785318285308322AB07AA0612059B
:1011EB0002EF2BFFEE3AFE22788712053B7887221F
:1011FB00788312053B788322F582E4353DF5830233
:10120B000547F58312054778A90205028E348F3501
:10121B008C368D378B38753909753AC4E53A2422EB
:10122B00F53CE43539F53BE53A240EF53EE435392A
:10123B00F53DE5386405702E853C82853B83F0A334
:10124B007450F09000E51211BF12114E12056C0094
:10125B00000000E53C240812115212056C0000003E
:10126B00009000E18047E538C3940540030213B4B6
:10127B00853C82853B83E4F0A37450F0E538121172
:10128B009A1211BFE53812113312108EFF12114E44
:10129B00120547E53812111412108EFFE53C240895
:1012AB00121152120547E538121123F583121090D3
:1012BB00FF788B12053BE53725E025E04534FEE54D
:1012CB0035FFE53C240C121152EEF0A3EFF0E53C98
:1012DB00240E1211527404F0A3E4F0E53C24101216
:1012EB001152E4F0A3F0E53C2412121152E4F0A3E6
:1012FB00F0E537641C4536701AE53C2414FFE435E1
:10130B003BA807FC7D017BFF7A8479157E007F0863
:10131B00120363788B120502E53E24101212039020
:10132B002CED12050EE53E240C121203E53A241A9D
:10133B00FFE43539FEE5372408FDE43536FC122091
:10134B0042E4FCFD1211F31211671211F312051E88
:10135B00E4FCFDEB2537FFEA353612115F1211F372
:10136B0012050278101204BF78871211E5788FF6F8
:10137B0008EFF6F4FFEEF4FEE53C2410121152EEEA
:10138B00F0A3EFF0788B1205028F4C8E4B8D4A8CAD
:10139B0049754D0685364E85374FAF3AAE39121922
:1013AB00B0E5381211817404F022EF240EF529E414
:1013BB003EF528E47877F6852982852883E0FEA31D
:1013CB00E064014E6003021534852982852883A3CE
:1013DB00A3E0FEA3E07003EE64086003021534E49F
:1013EB007876F6121EB8502D121E86F583121EC08B
:1013FB00121E23C31204AE7017121E667B01C001AE
:10140B00121E72D001121E3D7414F0087601800575
:10141B0078760680CEE5292418F582E43528121E4D
:10142B002F902CED12052BC31204AE600302153462
:10143B007877E660030214CF18F6121EB850281204
:10144B001E23121ED5701B121E86121E2F787612AB
:10145B001E550BC001121E72D001121E3D7414F0EA
:10146B00800578760680D37876E6640A705674FF2A
:10147B007879F608F6E47876F6121EB85025EF1256
:10148B001E47E0FF7E00C3787A96EE1896500F78D1
:10149B0076E6FD7879A60608A6077878A60578760D
:1014AB000680D6121E86121E2F7878121E557B01CF
:1014BB00C0017878121E74D001121E997878121E12
:1014CB00467414F0121EA864024E7044E51F605956
:1014DB00121E86121E2F900177121EC0C31204AE6D
:1014EB007047F51F900177E0FCA3E0FDA3E0FEA39E
:1014FB00E0F54C8E4B8D4A8C49A3E0F54DA3E0F5FE
:10150B004EA3E0F54F900175E0FEA3E0FF0219B08A
:10151B00121EA864014E7011121E667B01121E86EC
:10152B00121E2F755E02121BAA228E3E8F3F8C401D
:10153B008D418B42EF2422F544E43EF543EF240E1C
:10154B00F546E43EF545854482854383E4F0A37478
:10155B0050F01219982404F582E5F03400F583E07D
:10156B00FFA3E0854482854383A3A3CFF0A3EFF0D1
:10157B00E5421218C41218B5FFE54424041218F8FA
:10158B001205471219982406F582E5F0340012185B
:10159B00B5FFE54424081218F8120547E544240C5E
:1015AB001218F87450F0A37418F0E544240E1218B6
:1015BB00F87404F0A3E4F01218F4E4F0A3F0E5449B
:1015CB0024121218F8E4F0A31218A6FFE546241013
:1015DB00121985902CED12050EE546240C12198577
:1015EB00E53F241AFFE4353EFEE5412408FDE435D2
:1015FB0040FC122042E4FCFD12195D120502EF249F
:10160B0006FFE43EFEE43DFDE43CFC12195D1205D1
:10161B001EE4FCFDEB2541FFEA354012191A1219A5
:10162B005D12050278101204BFAB07AA067896125A
:10163B000502EF2BFFEE3AFE789AF608EFF6F4FF71
:10164B00EEF4FE1218F4EEF0A3EF1218A6F54C8E82
:10165B004B8D4A8C49754D0685404E85414FAF3FAA
:10166B00AE3E1219B01219982416F582E5F034002B
:10167B00F5837404F0228E288F29EF240EF52BE4CA
:10168B003EF52AF583E52B2410F582E43583F583AB
:10169B00122BCB902CED12052BC31204AE60030260
:1016AB001796122BE3E0540F75F004A4FFAEF078FD
:1016BB0076EEF6FC08EFF6FD122BE3A3A3E0FEA3F8
:1016CB00E0C39D7879F6EE9C18F6E529240EFFE42D
:1016DB003528FE122042EFF47002EEF4600302177D
:1016EB0096122BE3E0C4540F64046003021796E5D3
:1016FB002B2406F582E4352AF583E0543FFEA3E064
:10170B004E60030217967876E6FE08E6FFD3941434
:10171B00EE9400404C08E6FC08E6FDC004C005E56D
:10172B0029240EFDE43528CD2FFFED3EFAA9077BCA
:10173B0001E5292422FFE43528A807FC7D01D00709
:10174B00D00612077078767600087614122BE374A5
:10175B0045F07879E62414FE18E436A3A3F0A3CE63
:10176B00F0E52B2409F582E4352AF583E024FA60B1
:10177B001424F5600A24107012122BD702287C1245
:10178B002BD7021D55122BD71207B0228E328F3357
:10179B008C348D357536097537C4E5372422F53908
:1017AB00E43536F538E537240EF53BE43536F53AB6
:1017BB00900183E0FFA3E0853982853883A3A3CF13
:1017CB00F0A3EFF0853982853883E534F0A3E53556
:1017DB00F0EB2408FFE43A12264BEEF0A3EFF0E512
:1017EB00392406122650E4F0A3F0AE02AF03E53322
:1017FB00242AFDE43532FAA9057B01E5392408FDDD
:10180B00E43538A805FC7D0112036390017F122695
:10181B0063FFE53B24101226AD902CED12050EE56F
:10182B003B240C1226ADE537241AFFE4353612267D
:10183B004BE0FCA3E02408FDE43CFC122042E4FC5A
:10184B00FD1226B7788012267B788012051E122691
:10185B004CE012268B1226B778101204BF78801238
:10186B00269F7884F608EFF6F4FFEEF4FEE53924B4
:10187B0006122650EEF0A3EFF090017F122663F5CF
:10188B004C8E4B8D4A8C49754D1112264CE0F54E02
:10189B00A3E0F54FAF37AE360219B0F075F02DE57A
:1018AB0042A42400F582E5F03400F583E0FCA3E0CC
:1018BB00FDA3E0FEA3E022E53875F02DA4240AF584
:1018CB0082E5F0340022E6FE08E6FFE53B2436FD18
:1018DB00E4353AA805FC7D017BFF020363E4F6AA1D
:1018EB003CA93D7B017549FF22E5442410F582E4B8
:1018FB003543F58322E62436FF18E436FEE53B2F0D
:10190B00F582E53A3EF583E4F022EB2FFFEA3EFE4B
:10191B00ED39FDEC38FC2226FDEC1836A805FC7DD4
:10192B00017BFF02036375F02DE538A4240EF582CD
:10193B00E5F0340022E53B2436FDE4353A22C37949
:10194B0094E7788C96FF19E71896227893E6FE08B1
:10195B00E622789612053B7896227543FF7544284C
:10196B007545627BFF22E0F8A3E0F9A3E0FAA3E060
:10197B00FB227887E6FE08E6FF22F582E43545F583
:10198B0083020547AB4CAA4DA94E02038975F02D76
:10199B00E542A422753A09753BC422E53B2436FF88
:1019AB00E4353AFE228E478F48EF240EF551E43E84
:1019BB00F550855182F5837445F0A3E4F0E54F248F
:1019CB0014FEE4354E855182855083A3A3F0A3CE3C
:1019DB00F00575E575AE747002057414FFE55124BE
:1019EB0004122BC3EEF0A3EFF0E5512406122BC328
:1019FB00E4F0A3F0E5512408122BC37420F0E55159
:101A0B002409122BC3E54DF0E551240A122BC3E434
:101A1B00F0A3F0902CED12050EE551240C122BC304
:101A2B00120547AF4CAE4BAD4AAC49122BBF12055A
:101A3B0047E548240EFFE43547FE7D147C00122059
:101A4B0042EFF4FFEEF4FEE551240A122BC3EEF045
:101A5B00EF122BBD122BCB1222EDEF4E7027900104
:101A6B0075E547F0E548122BBD122BCB9001771291
:101A7B00054790017BE54DF0A3E54EF0A3E54FF054
:101A8B00A37404F022AA06A9077B0175680875697F
:101A9B0000E54F2414F56BE4354EF56AAF48AE47BD
:101AAB001229D62253D9BF122B58122CAD122B8FC1
:101ABB00122D0F122D4B122C92122C76122D73D23B
:101ACB00AF122D25122CF91200097FC8122D6112AD
:101ADB00000A7FC8122D61903F647403F0E4903FBD
:101AEB007DF01228E08F25122A61121EDE122A6168
:101AFB00D2AD903F117401F0D2AF122D5B122A635D
:101B0B0075B8017BFF7A2C79E1122CC7903F1DE051
:101B1B0030E703431801851721851822D2AFE52240
:101B2B0030E020C2AF5318FED2AF1222458E238F66
:101B3B0024E524452360D5122AA578B0E660CDE4D0
:101B4B00F680C9E52230E20A5318FBD2AF121C8291
:101B5B0080BAE52230E30A5318F7D2AF1227AB80D5
:101B6B00ABE52230E40A5318EFD2AF122AE6809C81
:101B7B00E52230E10A5318FDD2AF122A1D808DE504
:101B8B002230E50B5318DFD2AF12253F021B17E5AE
:101B9B002220E603021B175318BFD2AF021B178B71
:101BAB00578A5889598F5D8E5C8D5B8C5A755F098E
:101BBB007560C4E560240EF562E4355FF5618562FE
:101BCB0082F583E4F0A304F0856282856183A3A38D
:101BDB007408F0A3E4F0E5622404121EA07406F06E
:101BEB00E5622405121EA07404F0E5622406121EA1
:101BFB00A0E4F0A3E55EF0E56224087B017A0179AD
:101C0B0055121E90902CED12050EE562240E121E3D
:101C1B00A0120547E55EB401187E007F067D00E546
:101C2B00622412FBE43561FAA9037B011205CA8019
:101C3B000DE5622412AB57AA58A959121E90AF5D3D
:101C4B00AE5CAD5BAC5AE5622418121EA0120547C0
:101C5B00E55EB401087BFF7A2C79E78006AB57AAC7
:101C6B0058A959756808756906756A00756B1CAFBC
:101C7B0060AE5F1229D622E47876F67876E6FFC35B
:101C8B0094054003021D54EF12112312108E1211F2
:101C9B00A87003021D4E7876E6FF121181E07003E7
:101CAB00021D4EE6FE121181E014F0EE121181E0DE
:101CBB006003021D4EEF1210BBE06403600280163E
:101CCB007876E6FF1210CD1211B212108EFFC312EE
:101CDB0004AE50197876E6FB12117812121778764B
:101CEB00121122F58312056C00000000227876E6B3
:101CFB00FF1210CD1211B212108EFFD31204AE4090
:101D0B004278A706E6D394027876E6FB502175F06D
:101D1B002DA42419F582E43400AF82FE753901E459
:101D2B00FDFC120C1E787612113F741EF0801412FB
:101D3B0011781212177876121122F58312056C00A6
:101D4B00000000787606021C86228E2C8F2DEF2445
:101D5B0022F52FE43EF52EEF240EF531E43EF5305F
:101D6B0012266EFAA3E0FBD39DEA9C4003021E22CF
:101D7B00E52F2406122672FEA3E04E6043E52D24C8
:101D8B001AFFE4352CFEEB2408FDE43AFC1220424A
:101D9B00E4FCFD1226C1787C12267B787C12051E92
:101DAB0012266E12268B1226C178101204BF787C75
:101DBB0012269F787AF608EFF6F47002EEF470575D
:101DCB00852F82852E83E0FFA3E0900183CFF0A3C4
:101DDB00EFF0122658FF90017F120547852F828561
:101DEB002E83A3A3E0FEA3E0FFEE7019EF24F9709E
:101DFB001412266EFEA3E024F8FDEE34FFFCAF2D8B
:101E0B00AE2C022D68122658F5378E368D358C3454
:101E1B00AF2DAE2C12238C22EF75F00BA424E7F51B
:101E2B0082E43400F583E0FCA3E0FDA3E0FEA3E035
:101E3B00FF227E007F061203637876E675F00BA413
:101E4B0024F1F582E43400F58322E675F00BA4242B
:101E5B00E7F582E43400F583120547E5292408FFF2
:101E6B00E43528FAA907227876E675F00BA424EB63
:101E7B00F9740035F0A801FC7D0122E529240EF54B
:101E8B0082E4352822FFE43561A807FC7D017E0042
:101E9B007F06020363F582E43561F58322E529248D
:101EAB0006F582E43528F583E0FEA3E0227876E69A
:101EBB00FFC3940A22E0F8A3E0F9A3E0FAA3E0FB46
:101ECB00227E007D007B010205CAE4FBFAF9F8C310
:101EDB000204AE903F78E030E40D7DB37C407F018F
:101EEB00122C617D15800B7D127C407F01122C61C1
:101EFB007D127C007F02122C617D127C0C7F031201
:101F0B002C617DEE7C057F05122C61903F69741F5F
:101F1B00F0903F6874FAF0903F05E090016FF090FD
:101F2B003F05E0900170F0903F05E0900171F0905B
:101F3B003F05E0900172F0903F05E0900173F09047
:101F4B003F05E0900174F090016FE0900155F09027
:101F5B000170E0900156F0900171E0900157F09004
:101F6B000172E0900158F0900173E0900159F090EC
:101F7B000174E090015AF07B017A01796F122B1FEB
:101F8B007D017C00E4FF022C618E3E8F3F8B408AEB
:101F9B004189428B498A4A894BE9240CF9E43A8BF3
:101FAB0046F5478948AB46E5481548700215471476
:101FBB00F9AA47E41203CFE543FD7C00AE3EAF3FE9
:101FCB00120415ED2430F545E43CF544D3E5459476
:101FDB0039E5449400400B74072545F545E4354439
:101FEB00F544AB46E54815487002154714F9AA4766
:101FFB00E5451203CFAE3EAF3FAD437C0012041557
:10200B008E3E8F3FE53F453E70ADAB460548E548FC
:10201B00AA477002054714F9120389FFAB4005422A
:10202B00E542AA417002054114F9EF1203CF70DAB1
:10203B00AB49AA4AA94B228C528D53AB07AA06E493
:10204B00F557F556F555F5548A588B59FBFAE55269
:10205B00C313FEE55313FFC3EB9FEA9E5027E559CD
:10206B00FF2402F559E558FE3400F5588F828E8314
:10207B00E0FEA3E0FFE4FCFDE5572F122D390BBB6F
:10208B0000010A80C9E55330E011855982855883D8
:10209B00E0FEA3E4FCFD2557122D39AF57AE56AD2C
:1020AB0055AC5478101204BFEFFBEEFAE557FFE581
:1020BB0056FEEF2BF557EE3AF556E433F555E43370
:1020CB00F554E555FDE554FC4D6013E5572401F53A
:1020DB0057E43556F556E43DF555E43CF554E557D4
:1020EB00FFE556FE22C0E0C0F0C083C082C0D075B1
:1020FB00D000C000C004C005C006C007C2CF78A97D
:10210B00120502EF246AFFEE3418FEE43DFDE43CB9
:10211B00FC78A912053B78A9120502E4FFFEFDEC41
:10212B005410FC600978A912055300000001051C2E
:10213B00E51C7002051B6405451B7003431810E575
:10214B001C640A451B7003431808E51C640F451BF0
:10215B007003431820E51C6414451B7007F51BF531
:10216B001C431804051EE51E7002051DB4610EE527
:10217B001DB40909751D00751E00431802D007D048
:10218B0006D005D004D000D0D0D082D083D0F0D0F0
:10219B00E032EF2422FFE43EFE753D09753EC4E5B7
:1021AB003E2422F53CE4353DF53B853C82F583E44A
:1021BB00F0A3F0122C2DF08F828E83E58224041273
:1021CB002C112404122C208F828E83E5822406127C
:1021DB002C112406122C20E53A24F8FDE53934FFA6
:1021EB00FCC004C005EF2408FFE43EFAA9077B01FD
:1021FB00E53C2408FFE4353BA807FC7D01D007D064
:10220B0006120363E53E2422FFE4353DFEAD3AACF6
:10221B0039122042EFF4FFEEF4122C2DEFF085383B
:10222B004C85374B85364A853549754D0185394E79
:10223B00853A4FAF3EAE3D0219B0C201903F7FE0F1
:10224B00903F63E030E01C903F1CE0FFE4FEEF604A
:10225B00061452070E80F7EEC394074006903F1109
:10226B007408F0903F1EE030E70A903F1DE030E726
:10227B0003D38001C39200300012903F1FE0F5267C
:10228B00903F20E0F5277A037BE88009E4F526F5FB
:10229B0027D201FAFBE4F528F529C3E5299527E5B3
:1022AB00289526501B903F01E0FFEB2529F582EA8C
:1022BB003528F583EFF00529E52970DE052880DA4E
:1022CB0078B07601903F11E03001054402F08003B5
:1022DB004404F0903F1CE07004903F11F0AF03AE4C
:1022EB0002228F558E548D538C52902CED12050E6D
:1022FB00EF6555FFEE6554FEED6553FDEC6552FC45
:10230B00902CF112052BEB5FFFEA5EFEE95DFDE819
:10231B005C4D4E4F6022E4FFFEFDFC902CF5120548
:10232B002BC31204AE7003FEFF22902CF512050E88
:10233B008F558E548D538C52E4F556E556121E2450
:10234B00AB55AA54A953A852C31204AE7011E5564B
:10235B0075F00BA424EBF582E43400AF82FE22056A
:10236B0056E556B40AD57B007A007900AF55AE54CA
:10237B00AD53AC52755E01121BAA751F01E4FEFF33
:10238B0022AB07AA067538097539C4E5392422F53D
:10239B003BE43538F53A853B82F5837403F0A3F0C3
:1023AB00853B82853A83A3A3E4F0A3F0E53B2404A9
:1023BB00F582E4353AF58312056C00000000EB243E
:1023CB000EFFE43AFAA9077B01E53B2408FFE4354D
:1023DB003AA807FC7D017E007F1C120363E53924BC
:1023EB0022FFE43538FE7D247C00122042EFF4FFFF
:1023FB00EEF4853B82853A83A3A3F0A3EFF08537F8
:10240B004C85364B85354A853449754D01754E00E3
:10241B00754F24AF39AE380219B08B268A2789281D
:10242B008F828E83752900752A01752B00752C0AF6
:10243B00AC2BAD2CAF82AE8312046AEF4E60140549
:10244B002AE52A70020529122A691204038E2B8FA2
:10245B002C80DD85832B85822C122A8A852A828506
:10246B002983E41203E1D3E52A9401E529648094DE
:10247B0080402B122A6912046AED2430FF122A8A3B
:10248B00E52A152A7002152914F582852983EF1286
:10249B0003E1122A6912046A8E2B8F2C80C8E52C5B
:1024AB002430122A8A0203CF787FE4F6D8FD758197
:1024BB00B20224FA021AAFE493A3F8E493A3400305
:1024CB00F68001F208DFF48029E493A3F854072483
:1024DB000CC8C333C4540F4420C8834004F4568043
:1024EB000146F6DFE4800B010204081020408090C7
:1024FB002BEAE47E019360BCA3FF543F30E5095403
:10250B001FFEE493A360010ECF54C025E060A840EA
:10251B00B8E493A3FAE493A3F8E493A3C8C582C8E1
:10252B00CAC583CAF0A3C8C582C8CAC583CADFE9B6
:10253B00DEE780BEC2EDD2EC30EDFD78A2E624FCE6
:10254B00603824E6704F122943FDAC06E41201D922
:10255B007B8F7AC27975783E120137122982122548
:10256B00BE7A0079031225A878A5A60608A60775DA
:10257B00BB0475D10F78A27604221229431225BE13
:10258B007A0079061225A808A60608A60775BB1EB1
:10259B0075D107800375BB1E78A2761E227BFF12B6
:1025AB002CC77B007A007908122CC7789CE6FE08B2
:1025BB00E6FF227B007A007908122425228E6E8F8B
:1025CB006F8C708D71903F54E070FA122A9B903F84
:1025DB0008F0903F09F0F572F573FDFCC3ED9571B2
:1025EB00EC95705021E56F2DF582E56E3CF583E09F
:1025FB00903F04F00573E57370020572122A720D99
:10260B00BD00010C80D6C3E5739440E57294005075
:10261B0012E4903F04F00573E57370020572122A01
:10262B007280E3E573157370021572E572903F5774
:10263B00F0E573903F58F0122A9B903F5304F02221
:10264B00FEE5392404F582E43538F58322E531249F
:10265B000CF582E43530F583E0FCA3E0FDA3E0FE4E
:10266B00A3E022E52F2404F582E4352EF583E02246
:10267B00EF2411FFE43EFEE43DFDE43CFC02053B90
:10268B00FEA3E0FFE4FCFDEB2FFFEA3EFEED39FD80
:10269B00EC38FC22AB07AA06120502EF2BFFEE3A31
:1026AB00FE22F582E4353AF5830205477880120560
:1026BB003B7880020502787C12053B787C02050290
:1026CB008B468A478948AB49AA4AA94B12038970A2
:1026DB00028049AB46AA47A9481203896052854933
:1026EB004C854A4D854B4E8B4F8A50895112198F11
:1026FB00FF6024AB4FAA50A951120389B507187478
:10270B0001254EF54EE4354DF54D74012551F5512E
:10271B00E43550F55080D612198F7007AB46AA4797
:10272B00A9482274012548F548E43547F54780A3AD
:10273B007B007A007900228B408A418942AA06A944
:10274B00077B0185404985414A85424B1226CBAE1A
:10275B0002AF01EF4E604878977601E418F6789651
:10276B00E6FDC394085038AB43AA44A9458D827546
:10277B0083001203A2FD70037897F67897E6600D3D
:10278B0018E62FF582E43EF583EDF0800D7896E6A2
:10279B002FF582E43EF5837420F078960680BF22F5
:1027AB00E47876F67876E6FFC39405505BEF12116A
:1027BB002312108E1211A8604A7876E6FF1210BB16
:1027CB00E06403703EEF121140E06037E6FF121138
:1027DB0040E014F0EF121140E07028E6FB7F11127D
:1027EB00117A121217787612113112108E240112EF
:1027FB00116DEB121133F58312054778761210BA6F
:10280B007406F0787606809C22504F53540047454F
:10281B00540070686F746F3100696E646578002FB7
:10282B0020007377697463683D005441473A4C4507
:10283B004E31005441473A544D5031005441473AC0
:10284B00544D5032005441473A564F4C310054418D
:10285B00473A43484B3100434845434B45440054AA
:10286B0041473A43484B32005441473A4C454E326C
:10287B00008E2C8F2D8C2E8D2FEF240EFFE43EA976
:10288B0007753001F5318932E52D2422FFE43EFE38
:10289B00122042787BEEF608EFF6BEFF37BFFF340F
:1028AB00E52D2422F582E4352CF583E0787AF624A5
:1028BB00F87021AB30AA31A93290000C1204D28FE0
:1028CB00388E378D368C35852E39852F3AAF2DAE18
:1028DB002C12219D22E4FE903F78F0903F7A748079
:1028EB00F074A6122A7F7FC8122D5B74E0F0122DB4
:1028FB0061903F7FE0FDE4903F78F074F6122A7F01
:10290B00122D5B74E0F0903F7FE0FD122A63903F45
:10291B007EE0540560F8903F7EE0FD530505ED30F9
:10292B00E2047E20800FBD010AE4FE903F70740C20
:10293B00F080027E20AF0622AFBE78A0760008A6FC
:10294B0007AFBD78A3760008A60778A1E67F00182D
:10295B00F6FE08EFF678A3E6FC08E62FFFEE3CFE4A
:10296B00789CF608EFF6FDAC06E41201D9E4FBFA0D
:10297B007948784012002E120212789CEEF608EF7E
:10298B00F622C0E0C0D0758CF0758A60E51360024A
:10299B0015130516E51670020515E51960041519D2
:1029AB00802475190AE514600415148019751464D4
:1029BB00051AE51AC3943C400D751A000512E51271
:1029CB00B43C03751200D0D0D0E0328E638F648597
:1029DB00636C85646DA86DAC6C7D01122A91240625
:1029EB00FFE4356CA807FC7D017B017A0179551258
:1029FB002A91240CF582E4356CF583E568F0A3E5A8
:102A0B0069F0E56B240EFDE4356AFCAF64AE63023E
:102A1B0025C8E4F526E526121E24121ED5602EE5E8
:102A2B0026121E47E06026E526121E47E014F0E54D
:102A3B0026121E47E07016E52675F00BA424E7F569
:102A4B0082E43400F58312056C000000000526E5D6
:102A5B0026640A70C0227F32122D61022D61AE2BCB
:102A6B00AF2C7C007D0A22E572903F08F0E5739055
:102A7B003F09F022903F79F0903F787480F022ABC1
:102A8B0026AA27A928227E007F06120363E56D2262
:102A9B00E4903F59F0903F5AF0228E268F278F8279
:102AAB008E83E582240CF582E43583F583E0FCA369
:102ABB00E0FDC394F0EC94054020ED8CF012059DE5
:102ACB002ADE08002AD7080600002AE5AF27AE2623
:102ADB000213B5AF27AE2612168122E51F60349084
:102AEB00017EE0602E14F0E0702978B106E6D394F5
:102AFB000250197B007A007900900177121E317514
:102B0B005E01121BAA90017E7404F022E490017EF8
:102B1B00F0F51F229000051203A2F5269000041277
:102B2B0003A2F527AD27AC267F10122C6190000372
:102B3B001203A2F5269000021203A2122C5A900047
:102B4B00011203A2F526120389122C5A2243B283D7
:102B5B00E5B920E52BE4F5B9F5B943B980FFFE0FD4
:102B6B00BF00010EEF64C84E70F543B9C0E4FEFF21
:102B7B000FBF00010EBE07F8BFD0F5E5B930E5FB7E
:102B8B0075A9032275E10175F1FC75D40375E2405B
:102B9B0043A41043A5C043A51853A5FE43A6FC753B
:102BAB00F3DF75D62075A7FF75AEFF75850B7584A2
:102BBB00FF22A3F0E5512410F582E43550F5832272
:102BCB00E0FCA3E0FDA3E0FEA3E0FF227878E6FCA7
:102BDB0008E6FDAF29AE2822852B82852A832202A7
:102BEB00A50E7401B10001B2000274000002AE0028
:102BFB000146015500010203040501A700021B0059
:102C0B0000021D000000F582E43583F583E0FCA390
:102C1B00E0FDE53C22F582E4353BF583ECF0A3EDDA
:102C2B00F022853C82853B83A3A3F0A322C0D07501
:102C3B00D000C000C00730980DC298AF9978AE761F
:102C4B000008A6078002C299D007D000D0D032F579
:102C5B0027AD27AC260F903F0AEFF0903F0BECF01F
:102C6B00ED903F0CF0E4903F0DF0227E007FE17D74
:102C7B00007B017A0079001205CAE478A8F60812E5
:102C8B00055300000001227E007F147D007B017A3A
:102C9B0001795B1205CAE4F517F51878B0F678AD33
:102CAB00F622438E0843890175190AE4F514C28C88
:102CBB00758CF0758A60D28C43A80222C2AC1203C9
:102CCB00896010F599740129F9E43AFA3099FDC23B
:102CDB009980EBD2AC22737461727400FFFFFFFF1B
:102CEB00FFFFC0A8837EFFFFFF00C0A883FE7F6E9F
:102CFB007A0079E7121ECC7F0A7A017975121ECC05
:102D0B00E4F51F22439810758E70758D30858D8B71
:102D1B00758920D28ED299D2AC2275D10F78A2763A
:102D2B001E75BB1E75BA1F75BCF875E88022F5576A
:102D3B00E5563EF556ED3555F555EC3554F5542223
:102D4B00E4F5C875CB4CF5CA75CD4CF5CCD2CA227F
:102D5B00122D61122D618F13E51370FC22AB05AAA6
:102D6B00047D077C00021797C202A20292000200A8
:102D7B0026485454502F312E3120323030204F4BB7
:102D8B000A43616368652D636F6E74726F6C3A20D2
:102D9B006E6F2D63616368650A436F6E6E65637456
:102DAB00696F6E3A204B6565702D416C6976650ACB
:102DBB00436F6E74656E742D4C656E6774683A2044
:102DCB005441473A4C454E310A436F6E74656E74ED
:102DDB002D547970653A20746578742F68746D6C16
:102DEB000D0A0D0A003C48544D4C3E3C48454144AD
:102DFB003E3C5449544C453E4338303531463334D0
:102E0B003020576562205365727665723C2F5449AA
:102E1B00544C453E0A3C4D45544120687474702D0A
:102E2B0065717569763D436F6E74656E742D54795B
:102E3B00706520636F6E74656E743D227465787473
:102E4B002F68746D6C3B20636861727365743D67AA
:102E5B006232333132223E0A3C4D45544120636F7E
:102E6B006E74656E743D224D6963726F736F667419
:102E7B002046726F6E745061676520352E302220AC
:102E8B006E616D653D47454E455241544F523E3C38
:102E9B002F484541443E0A3C424F44593E0A3C466A
:102EAB004F524D20616374696F6E3D2F696E64657F
:102EBB00782E68746D6C206D6574686F643D706FEF
:102ECB0073743E0A3C5441424C4520626F726465F8
:102EDB00723D302077696474683D223130223E0A9E
:102EEB003C54424F44593E0A3C54523E0A3C5444D3
:102EFB002077696474683D2231303030223E0A3CC1
:102F0B0048313E266E6273703B266E6273703B26B1
:102F1B006E6273703B200A3C494D47207372633DD0
:102F2B002270686F746F312E6A7067222077696424
:102F3B0074683D2239353022206865696768743DB5
:102F4B0022313330223E3C2F48313E0A3C48313E41
:102F5B003C666F6E742073697A653D2236223EBAE9
:102F6B00BCD6DDB5E7D7D3BFC6BCBCB4F3D1A72065
:102F7B003C2F666F6E743E3C666F6E742073697A7D
:102F8B00653D2236223ED7D4B6AFBBAFD1A7D4BA5C
:102F9B003C2F666F6E743E3C666F6E742073697A5D
:102FAB00653D2236223E200AB4F3D1A7C9FABFC62B
:102FBB00D1D0BBF9B5D83C2F666F6E743E3C2F4811
:102FCB00313E0A3C5441424C4520626F726465723B
:102FDB003D322077696474683D22393530223E0AD0
:102FEB003C54424F44593E0A3C54523E0A3C5444D2
:102FFB002077696474683D34373520686569676884
:10300B00743D35303E0A3C7020616C69676E3D2221
:10301B0063656E746572223E3C666F6E74206661EA
:10302B0063653D22CBCECCE5223E43505520CEC22C
:10303B00B6C83C2F666F6E743E3C2F54443E0A3C20
:10304B0054442077696474683D343735206865696A
:10305B006768743D353020616C69676E3D2263652E
:10306B006E746572223E5441473A544D5031A1E67D
:10307B003C2F54443E3C2F54523E0A3C54523E0A81
:10308B003C54442077696474683D34373520686557
:10309B00696768743D35303E0A3C7020616C696726
:1030AB006E3D2263656E746572223EC4A3C4E23129
:1030BB003C2F54443E0A3C54442077696474683D69
:1030CB00343735206865696768743D353020616C2D
:1030DB0069676E3D2263656E746572223E5441478B
:1030EB003A544D5032A3D63C2F54443E3C2F5452AD
:1030FB003E0A3C54523E0A3C54442077696474683F
:10310B003D343735206865696768743D35303E0A54
:10311B003C7020616C69676E3D2263656E746572ED
:10312B00223EC4A3C4E2323C2F54443E0A3C5444D6
:10313B002077696474683D34373520686569676842
:10314B00743D353020616C69676E3D2263656E742A
:10315B006572223E5441473A564F4C31A3D63C2F11
:10316B0054443E3C2F54523E3C2F54424F44593E04
:10317B003C2F5441424C453E3C42523E3C42523E17
:10318B00266E6273703B266E6273703B266E6273A3
:10319B00703B266E6273703B204C4544D6B8CABE5A
:1031AB00B5C63A200A266E6273703B203C494E50DE
:1031BB00555420747970653D726164696F20434882
:1031CB0045434B45442076616C75653D31206E61FE
:1031DB006D653D7377697463683EC3F0203C494E5F
:1031EB0050555420747970653D726164696F200A83
:1031FB0076616C75653D30206E616D653D737769E9
:10320B00746368205441473A43484B323EC1C12056
:10321B00266E6273703B20266E6273703B203C49B6
:10322B004E50555420747970653D7375626D697499
:10323B002076616C75653DB7A2CBCD3E203C2F54FB
:10324B00443E0A3C54442077696474683D2233370A
:10325B00223E3C42523E266E6273703B20266E62CB
:10326B0073703B266E6273703B200A3C2F54443EB6
:10327B003C2F54523E0A3C54523E0A3C5444207755
:10328B00696474683D22373339223E0A3C2F54441B
:10329B003E0A3C54442077696474683D22333722DC
:1032AB003EA1A13C2F54443E3C2F54523E3C2F5444
:1032BB00424F44593E3C2F5441424C453E3C2F46D5
:1032CB004F524D3E3C2F424F44593E3C2F48544D9C
:1032DB004C3E0A00485454502F312E31203230309E
:1032EB00204F4B0A43616368652D636F6E74726F79
:1032FB006C3A206E6F2D63616368650A436F6E6E67
:10330B00656374696F6E3A204B6565702D416C690E
:10331B0076650A436F6E74656E742D4C656E6774BB
:10332B00683A205441473A4C454E320A436F6E740B
:10333B00656E742D547970653A20696D6167652FE0
:10334B006A7065670D0A0D0A00474946383961F9FD
:10335B00026100F70000002B41F9B30A8CB2D9319E
:10336B0086960163B68DB8C30183B50165ABEEF3E9
:10337B00F802DDDD0066664DA2C699A057BFDDDF02
:10338B005092CAFCDD93014F71D0D5D8016EBAFAB9
:10339B00C4410195C373966A72A3D1017BB50045F5
:1033AB0068448A88016C8E2EA1CC1181B7E6EDF6AC
:1033BB00016BADAEC7E22EF8FCB9A538DDAF22E646
:1033CB00E0BB0183C5003B59439CC4156B89AFD54A
:1033DB00DB3B8BAB0073ACCCCC99007DC2D9EBF44F
:1033EB0063ADCB015C5CFFFFFF0172B60099CCFFB4
:1033FB00CC66CCB85C00669982ACD690C5D59DC026
:10340B00CDF8B719BACED30173733EB0D52E8CB3AA
:10341B00018CB7017CBC6699CC117DAB00354FF7A5
:10342B00F9FCAF939FA7D0E5CEAC2F3B93BF00FF2A
:10343B00FF067CB51D83B7DAE4D80F93C3005C8A13
:10344B00006699006DA3CFDDEE1F9CBCECB1155A45
:10345B00AFCFF9BC2A33C6E2FDECC39DBCDD018DB9
:10346B00C578B8CFA4C8C8016AB600527B004263C6
:10347B000173A550A4CD76AFC3004C72EDF2F8B634
:10348B00CCE55399AE00314A115F7E01A5D5B4B896
:10349B00BE65A7C769BED80183BD318FC102F7F7DF
:1034AB00017BAD1776A30163A70173BBDCE6F200CA
:1034BB005681017CA6005985D6D9D9248CBD0066CE
:1034CB0099C3D5E901729B2D85AA1A87BB5CB7D529
:1034DB00BFD9D1003F5E01496A3D9AC301638B544A
:1034EB00A0C22D91BF3788C69BCAD701A4A4C1DF48
:1034FB00ED82BED30173944798BB02C3C302EFEFB7
:10350B00015879AFA7B20F7DB270B4CD2F9AA50039
:10351B0099CC59A6C40038530F9DCD298FBF106B82
:10352B008A0B85BC016286002E443CA5CC0189899F
:10353B00018DCA0951751086BD1A6585156F9A0ADA
:10354B006B8C69B0CC0A5A80064D6F4DB1D2207D81
:10355B00A5D6E1EF0181AC239ECB06739AAEC7D102
:10356B000B70A368A7BB94B7DB0B638D3394C102BD
:10357B00E5E5075378C8D9EB115B7D1C97C75A9FBC
:10358B00B9A6D0D930AAD10D628B19A4D1006699F6
:10359B000573AC018DBDF9F8F0BACFE6A8C4E00F06
:1035AB008DC153A5C72366845DAAC9066E931E7190
:1035BB008C058EC5086394004A6376A5D30B6B9B71
:1035CB00A2BFDF0884B51F81A1087AA9C5CFD50892
:1035DB0097CA0179A0077DA71053721063850A5B08
:1035EB007C0882B01776A0135D810E4E6E94B5D613
:1035FB000D699416668C0F709D1473A20000000069
:10360B0000000000000000000000000000000000AF
:10361B00000000000000000000000000000000009F
:10362B00000000000000000000000000000000008F
:10363B00000000000000000000000000000000007F
:10364B00000000000000000000000000000000006F
:10365B0000000000000021F904041400FF002C00FE
:10366B00000000F90261000008FF002F081C48B0A1
:10367B00A0C18308132A5CC8B0A1C38710234A9C3E
:10368B0048B1A2C58B18336ADCC8B1E3C1353264CB
:10369B00ACF14872CD1A2C5842AA0C89D2E448924C
:1036AB0017CE507898F2074C4F9E1CA67C8931861A
:1036BB00CF9F4083FE5441B4E8059448B15058FA6B
:1036CB00CBE5480F50A34A8D7AA0AAD52D5BA2FA61
:1036DB00F400074E0C931470E24C8A85C596033F99
:1036EB0048FC881A87845BB73661CA9D4BB7AEDD41
:1036FB00BB78F3EADDCBF702481971FB2A348972E8
:10370B00A5CA9626EFA6C4E2102463923869CAD0E4
:10371B0028B4728CA22A82FA258BD4A98AA9A0A7D5
:10372B005AAD4A40EB40A18B3997658134CE812D40
:10373B002CDEBEA5F0E3804FC1B873EBDECDBBB77B
:10374B00EFDF06FF06D64D38A561199D79EA0DF915
:10375B0010A4F28D6B22374C99D1B250CC7E139FB3
:10376B0054ED3446E8EF512548FF18EDC1F6708251
:10377B001EBEAAE64C42426CD96E9572957A1BB866
:10378B00FDFBF8F3EBDFCF7727EEE2C6AD94DC6EF3
:10379B007F3D84D3791A51D790733D590714662E08
:1037AB00AD87984BDE41750178538927DE59077831
:1037BB00E0D70F208258D95FEBA995160B28A2F8FA
:1037CB009648A359C5DF8B30C628E38C2F32981748
:1037DB0080C721874562C06171068208D9D8917F65
:1037EB00D34D569183D715F5C32FBF48F8038F02DE
:1037FB0045756168E441B5857804545550855A0583
:10380B00B5946A2CA497E298B1D5D4E20173052341
:10381B00871C43C0E0A69B1DC801850A34D669E707
:10382B009D78FA1612901CE1781C62FC7962644355
:10383B004BF179114A8DFD782492D66DC79953F4CB
:10384B0001F55D8753116069691EC411078653C565
:10385B00F08B0C4B51201B5731909922094BC58093
:10386B0015871D05D3C19BB0C6FF2A2B0C73D299AC
:10387B00E7ADB8E65A974BF8AD71C6637D3A9A231C
:10388B00A032FAFA9C42C895049843C94EC4A84F7B
:10389B009861F64352A1AE31ED94F46537A9549774
:1038AB0076DB2D68674255D51AA1C207158A3E9162
:1038BB00B9D895E2C5A0511E6DC62A861CC17C6085
:1038CB00EFBD1F40C1A6AC6218A5EBBF0007CC1023
:1038DB0058872515626F445AE4A7612DDDEAABA129
:1038EB000535EC51B30C25FCD0B39559D82459D6DA
:1038FB009A442968DA829B9E779646E56DB8548583
:10390B003B2D4AF0BDB52999A80256957818890127
:10391B00EB105038C38CA93CB350880DAEC65AABD4
:10392B00AD1D2561F4D14908ACF4D2741527C31928
:10393B0050B3142072C8F19ADB8112453875C1C798
:10394B00DEFAEB4314F7B96C4322458471503C6E9D
:10395B009C94531F83E693493154959E850249509D
:10396B00F29978E7DDB604E5B6FF4C421C3FC09CEC
:10397B00AA8B15C50BC31079D8D0F3E2643A008B30
:10398B001CB0CAF184BF4C576E397000AE6DB54098
:10399B004E4D8D12C4752D1651610CEF68F9195DE2
:1039AB001F247147612B249D436703E594A3C93DF5
:1039BB0085E10F3E3D79610C2182B886DD59EA2DF8
:1039CB007CDE31B0D4F2E22430D7154536BB290664
:1039DB002C85B00044F464160284A9367C5008335D
:1039EB000EEC9CA203C1182EF9E4445F6EFEF9772E
:1039FB00D15EBB4464813E97A0A92364DCEAE6EF69
:103A0B00E9D0EB1C7DBE60D9B0C7FEB684D6FA41B7
:103A1B001CB2021E7741E56D50F28B775A24950B41
:103A2B00C46D78798B03A844F516C6B12624318072
:103A3B008344200727C5A1E803308005999CE12624
:103A4B00EFA58819B0781C144458BD0F18AE064F5B
:103A5B00201FFA6648C38CA86F42F183884974947F
:103A6B0043B9D4A439FCABE1D7FF8AD4438A0471A0
:103A7B0021AD4B88FFB672146A2DC55A6A21009787
:103A8B0052D6A12835D074031197DCC47581505DD3
:103A9B00000E103C13017E002AF8A4AB67C69148B8
:103AAB00BC9E472620C0C01950F0A0CF4068429F53
:103ABB00E5615EB080C1077A568860BCA903309C73
:103ACB005C0D0749C8C17027811E490A5F96021118
:103ADB00D1D5D091151B144790E3BE2ED2A6214B06
:103AEB00DCCACADAE716AC50A92ABC0B0DB918D937
:103AFB00B6A8784529A2C2820AC2489EF13846363A
:103B0B00DED194A64C954687E4E14DC1A05E8A9C1C
:103B1B00E1C6C439604C20EC80E21CD0813601A197
:103B2B0003508081187ED9B363BA6908358021515F
:103B3B000A494D1ADE70479BB3CB2811D9B4242AFE
:103B4B00C462E863CEFE8035C922FAC59B06F1DF5D
:103B5B0015396692557D124DD81AD9571C7581BCF3
:103B6B00B16647BC7B202B3B14FF87D22CA682E986
:103B7B008ADB1953A42086BC4A99754C91F3E470E7
:103B8B00BD14DDF2702C6401143AE0C6C335144544
:103B9B00D0638133E4084237052390E5ABA6487523
:103BAB0095B9DA99732E7F39698250D748745A4E7A
:103BBB009C031BDB24C9892C49222493DEF94AA8D8
:103BCB009E68927E4A512A0C5CCB542E10229F7C0D
:103BDB000EA81D42E51AE6B645A4E22D536789C12E
:103BEB005248C033A8C481960D89171474492618FE
:103BFB0004C3191D70063351C48C107E4F0CC17059
:103C0B00800DF29087140101721FF06330C6C48CD3
:103C1B0078E5219A321CA95EED744D6CAA142F62C3
:103C2B00F9EB457C45D38540127D143843635C5AD0
:103C3B0011FA25447F4A5CA27638139B1F7C8B8A32
:103C4B005AAA678B7887BB9F906B0DFA4C2A4ADC7C
:103C5B00154FD1E84D02AC420ECF7E922259C68150
:103C6B0021F19AAB5B23CA8214FF3E548ECC804267
:103C7B002EC70484867680B65040DC1B4D55888356
:103C8B00764010D20CE95E976B9FBE66F33E3B9479
:103C9B0069370BFBCD239EAFA00B11D246183B10FF
:103CAB0072515720996CA21329B0864E5E568BA089
:103CBB00BC10032DC3822796E7352428CB014B89F3
:103CCB00D9332DB02A29A12A99064AA685C48BB6C9
:103CDB002C00A16C51948762CAC18263728018A8B0
:103CEB00E7CC0F28F8A2632A2E9C9A0052E65A982A
:103CFB0040D7744A9DC0E943EE46CCBA97F3D149FD
:103D0B0029D991421529B2FEBBE65262E39A6E3D68
:103D1B00D5815691E74FA49296F8CAE017B174CBB0
:103D2B001427A5372EC14105AA1DD3014BE55A4DCA
:103D3B0029E4BF239483CDE45888898A61081066EF
:103D4B0041F7985147075CB4106C6501337EBBB8E3
:103D5B0087E6A10ED1F482722F4C66B994747D0E56
:103D6B002371E8405CDDEF32CDFF4760132CA1DC03
:103D7B004C10C8A6539D9B4449A898C4026FC54DCF
:103D8B002ACBAB67A44E13952DB4253E52C3426D7F
:103D9B00DEDBD4FAA26C34E4D22F8AAC32E34C19BA
:103DAB001921CD03300BDC6483629AAAB73F53937E
:103DBB00E1602506287CC084DBD3A8324DC58C3D41
:103DCB00A288835F16440CC75CE65A2BCCB9DCC4C3
:103DDB00D549D89C485ECBCFD74BF3B040B0963F7C
:103DEB009B3E96BA38E59DDAAA858518782B4BA6AB
:103DFB00D46069875CE955BD075514080909BC8374
:103E0B00BBAE7465C88CCEDB54BC12641431FADCC7
:103E1B00973608079D4126581C14083618C2587D42
:103E2B00068B64C2400E71FD401EEE55AF3C040D77
:103E3B0071750CDF986011EFB6A248C23008431DB4
:103E4B00642D485B57F3701D39F384CC279C35FFE9
:103E5B0095C3957B18B3E83C91E8E4249207891D40
:103E6B0068D4969C67634A4AEAFFB56FA53D70A973
:103E7B0018C497334F2A54EE3ABB15F4C6D8E6F85C
:103E8B009581A4B9B459D216C48F3030788287701B
:103E9B00E0DA8EB5102EC419140A8C6F9D51991946
:103EAB00D963BA6E5FC5659F8DD5016BBC72BC14AF
:103EBB009E5C8717F25543B80076B2866B39EBEAF6
:103ECB00B030C1F86385BD9B0C64001A1921F64212
:103EDB004C5CECFDE5F059F441CA4EFF7680673738
:103EEB0030E5EBADB4A5AC724FBDEFF4F03CFD5C2F
:103EFB0050B4389E169151D22C90E5B9EB53103833
:103F0B0011370FA98081A99C3104A22B391851E6D6
:103F1B005921EA5D6AC8C9C1840E801CE23E2007A4
:103F2B00DA56B4035C6F3849F22007FCA8C9EB6E74
:103F3B00CA43B4685D1089FB3560CF2D92B17B7D90
:103F4B0071B6F725030C08811102100011302008FF
:103F5B0017192243F06743E91E5B21788F4A9E9322
:103F6B001237BF8332B4315E3CFF54EE7600DA2158
:103F7B00FE4B12626788C2B5625335DEAAAF2D883D
:103F8B00CDE46DAAD45B400CBC2DA681E588E01472
:103F9B00219DE836B35B74C555BBE4515C4061B2FF
:103FAB00C711F6267694931BB1327616E62644118A
:103FBB0043B33666BEA761FFA23587916B09E171EA
:103FCB0066D752C5F781741104215001058002890F
:103FDB008006CC170054400616A1761F2682F2C32A
:103FEB00719CA358D8671D58314F6071783B623272
:103FFB00E7857372237E83074AAAB1534CF2379B32
:10400B00522A286264E5E5372C001420925FA6F251
:10401B0067A6411040C76E7D4480EDD679622006BD
:10402B00FCD77F2D0403540761F5D2331C04085CC5
:10403B00805CD3D4111CB47BBA316A5E45816BB8FA
:10404B005707E5055E104D6146144F527632085DF9
:10405B004E533AF4D44888321730A83AC677170330
:10406B00E07C2D600203B17CCCFF970369601130BB
:10407B006558341811205149C0761A428115DBC797
:10408B00199AD577DDB2634F25292C371A3F102AA1
:10409B0065C13B9A334592F27DD6111B6281134564
:1040AB00B629E8E52104E126725008BC040316E0AA
:1040BB006AA6E2476DE28B60B838C4F44C17E50C86
:1040CB00ECC63358776F613007B236871AC1415E41
:1040DB0040816FA21B07258678D8757791072FF241
:1040EB0026D02408C8E5056E9061C197271AF827DA
:1040FB00D9847615636724A18ED5D58718510152C3
:10410B00C000D03000522005C030050421052B180B
:10411B000033C00615512031058F05216C3F846299
:10412B009B081B4CB2900B8914F3C172A11846A4C7
:10413B003815A7F825AED11622B263E0D26899E202
:10414B0036515816AE058404C1410EE000412700DC
:10415B00B754087D34260F350409358C8B03744313
:10416B00A06976040BCC044243FFD005B1C77BCCCE
:10417B00E3264F104D40776F10A8173E59034D7033
:10418B009408C8931C6133F801271710762A808B8B
:10419B00C7700CD4A00A3EE00338C41B4150010C7D
:1041AB0050016F776BDB312C18F81172B7204F442D
:1041BB00888758887511022BC88F33D002043100C1
:1041CB00FDC88245F082D6F76B05B19515B0975EA9
:1041DB0009774054498A127238881571708156E1FB
:1041EB007D0CE4361A292E79364B2C50258E8637CA
:1041FB003EC1219B851242064667728B43E06A36AD
:10420B00703890D301F3E25070127A08E685169459
:10421B00476E7265FBE60C72C09AA3777FCA840166
:10422B0007580362C6116F5203E0C841304081E466
:10423B00A39424E126463907C299941AF12AB5377B
:10424B00106E829C30E0860E01390EA14C0E117659
:10425B00026138BAA7029003058A909DD4E006F854
:10426B002197FD388F19D0187FFF08887FB56B8297
:10427B00851468598903A19673C100733903753985
:10428B00106CD98F13000C17916D76179773C97C2F
:10429B00463000714636CA113B39A835068321C218
:1042AB002363E3571AA3110748F184283225F9D465
:1042BB00215B01413F200140587E3A9722E047386D
:1042CB0017A07ABA44421DE06F36403D1DD5015A06
:1042DB008860A839603D839A508622C46403C75412
:1042EB002F5D884287F307803007D2649BB957074D
:1042FB0075607AD9586173010506E1268230075C37
:10430B0070A40B975716D13CCB59141248144F1A63
:10431B002D0C61339023A508818B435979302010E4
:10432B002D498136730C1AA009624A9BBE797C39E0
:10433B00B09F39C0001F319E02824D87A2663A01A1
:10434B00A7BDA69E02E18E7211047E5901739903DB
:10435B00F179017A3A970FD0A714A15D02917C52A3
:10436B005082D0778904F1A77BFF0A063AA1680334
:10437B00E30923E13F1AB20531B01E59B44F1CB902
:10438B002A9939550E141420422AF7253C93891586
:10439B0072331A06A05A21196EF07401CA248C6567
:1043AB00756FBE18AB0B069329A29B42D76EEC869A
:1043BB009A26DA461DF02ADE2306BFAA9314569BD3
:1043CB001AE18D461A0C7580944899A317C194571E
:1043DB005A10D7282B1D2066E5B326D7D81040D707
:1043EB002F2A104351EA93BC998057FAAB43C09CD8
:1043FB00432A94564A102D09A562F093D174388A3A
:10440B00300A3C4A9CF79101FBC97C339009E74881
:10441B009E118713E559964322A78695891831007B
:10442B00709701F3C888DAB09F562010F63A97F5CB
:10443B00F9051801670311048ED8968B4046345545
:10444B000167FA9E8C483695583695B17BA1B1051C
:10445B00E245164E451E7A5329C1E3780DBA98E012
:10446B0006413160A1A655151AFF1B7945D6225C72
:10447B00FA2AF3C69AAF225B85D0262D6AAB521669
:10448B002B008665AB1660B98722CE000B2E145C11
:10449B00C9A8519D570237FA8C1B012B478AA43CA4
:1044AB003AAFDA38110F452B10784BD5A9024C2AAD
:1044BB0006791006680B39EDDA9B51292B7290A502
:1044CB00EA3A813FF950D4482BD928AE06714B906C
:1044DB00338DBC098D02616FE32387EAF626D388FF
:1044EB00874709877340AFF6C1A8FBB904C3E2A69F
:1044FB007461A741729630E1189554A7046B112291
:10450B00D07CF89A080271B1CC670526000DFCD857
:10451B008F54000C822A898F3100A0BB8233C007D5
:10452B00420222EE39975490BA0921B00711192390
:10453B004B14134963EBA1A928E301A68A3785F72E
:10454B0084301B99E43140C273012181B321391AA4
:10455B00D32907B91A60536756F64693636203680B
:10456B00356F2C1094CF345640FFC0A40DC5413B82
:10457B00F326506075FE776F7940AC647AAC6FC2EE
:10458B000568CB05F1329C5D5B79C1A0AEB9C7A5BF
:10459B00B16287D64A14B1C5A462D804F01B065C7D
:1045AB0090B8815481B3024820456BDD8A87909384
:1045BB0007315403B8280850805CED3B10DC28A46D
:1045CB00D3F94C3F7AC104112F00786FC1A0A41707
:1045DB00D092866B6F6EB27462480B0B57037ECB17
:1045EB001BF678AF01900330C00B814590A383BBC2
:1045FB000591017C99018ED52765B995211002FE95
:10460B00198330010D101B9F0FBB8256B008AD5B99
:10461B009FB66B1167000DB37BAF548008CC4B4E2C
:10462B0031BC9FF6090D3CCC977E4910D1514463A8
:10463B00BCBB983154BE571B9CFA54075A8A5B1467
:10464B0063A84455A2681B298B379A323CC543019A
:10465B00CE2B7994226D6C9250DC03753640652914
:10466B008C6041797A290287F7FFC6B4B1928CCB63
:10467B00887FAFA25B3C437B4340B5CE88B71361C9
:10468B003862C0055FFB4CCB1A4D2F2C10C9A9BF4C
:10469B004FEABDC08987E4132B431034CA3AC005D7
:1046AB004C61A85C14B4778DC170947835664471F5
:1046BB004B876BB7EF7A6F4D504CC8257B5FEBA4E4
:1046CB003E29084DC0B5783B2BB95781CA194DF01F
:1046DB00F2475C500CC820AC9FF009068CC9FFB1A7
:1046EB00C568FA002D80C30AE1C5617C013CCC96FC
:1046FB002250015593104BCC7C05F00BE465667092
:10470B002A8F8F188946EC11E9CC7C4B209FFD68D2
:10471B00059B4B9FA8BB11422CC32BF800586C2355
:10472B008C0BD0734903E19CC5209B24D14291E9AA
:10473B00E71A554199FB94A079F3039E3055B4D8F1
:10474B0073AC2A6E2CD0783DD6BCB398591E427BE5
:10475B00F86741AAC7BD3C33AD41377ACA0C041D7B
:10476B00052BBE484221643D8BFF136F725009EC41
:10477B006BAC1501C0721006B232043C1A8EB486B3
:10478B00A5BAB99B4F302BCC4A9B453D0447A97A20
:10479B00038CB6890BCBB75C1447ED2659DBC23AB9
:1047AB003D102A102F47F926E0D804B858076ED2CF
:1047BB00C2BDC941E50AA5D8D804463A9BE2DAC97D
:1047CB00B102CB1538815F2B0759CB05DB803898AD
:1047DB00600B9FC0056046C27CE13415B0CFEFF98A
:1047EB0000308008B26017057DAF341005928A1037
:1047FB00558CAF2E8014979B35F67301F3C97C0F44
:10480B00C00706C19E1251CF01F0007720103FC0A8
:10481B00001D4B05B48BBA3E8711A46BD02C08033B
:10482B001F4B6C053001AC7DAF0C9034758A45DFA6
:10483B00C4180F42B20E2D213EA5A0E2B6D19412A0
:10484B003CE3E6017A968AA131AA078A3B17FA3133
:10485B0020AD2954618BD329C98C13ABC2C847092E
:10486B005C8CB29207A8193963FF623325CD3838B7
:10487B009307368AA3D8FC9CB1A226B1D201057C42
:10488B00CD43ADCC35D0265020C16F12BF7D7D33CB
:10489B003C2ABF6F9207188001CD28D5534D14F4D5
:1048AB000D038050E07CEDAC04D13CC7058E6E72DD
:1048BB00CC620D2B50C0D7428DC21408B86A9DB57F
:1048CB008A7B01A6FC263DCDD76046A64401055048
:1048DB0020C075CDC943500AA170026650CDCEE8F9
:1048EB00C2651A7161B9129E3D010F000C2D50006B
:1048FB005DE995751104820DD0541008D427102151
:10490B009003A6BD82030DB013C100E169103257AD
:10491B00BACC57BB8648A70EE19DFD3803914010DA
:10492B006420DB7B0A0C68E0766E077D18A10433EC
:10493B0060D00FE0071550C432807C3DBE9F340E13
:10494B000C63BEA734C00103C148EBB8DB0D3D546B
:10495B000FFD317A33BC2B3B4568512E4F0815A107
:10496B003A32AC34E8C24D2952FF25127C4C383E0A
:10497B00115CFC774C10964C4370A2EDA6CC1DA09D
:10498B00DD375351DE9D22A8495BC4445B7900059A
:10499B006280D3B3F9E20601C06FC24BCFAC4C6857
:1049AB004BC0493A395EF6B7CAFC26C23907B0D2BA
:1049BB00DFB2296BB022C068DB264A766FFEDDE2E0
:1049CB00071C2D35C04172D0053A79C921F5B5B810
:1049DB00C9E030C0A3DEEBCA60E6D6D1347F63ED0D
:1049EB00CAC56A2BC1352B50500225F007C19E94C6
:1049FB0013189C75FDABC2890DDB700DD8800D2D86
:104A0B009ED56616E37FC2B8543003C0000C3750F6
:104A1B000197FD884A3E174150E4063D011B00B04B
:104A2B0001300123B08254B0A57E41B915B17C345D
:104A3B0050C475B6232C98CF05B1974120B914E11A
:104A4B00E48FD8A7F83EDB6DB9EF17810B0FF000A1
:104A5B00FECE7C130003556C046BDE8F39300335AF
:104A6B00DE0286E0D998DDA707FFA910A9321467EB
:104A7B000C1E9DF83912BDE73B5F253E26555F8224
:104A8B008482BE54C8BB5966313C07B46292A715E9
:104A9B0019794B64C20C7270751ED57F6E0D2B97F6
:104AAB00AEC89ACEE16422DF642207FCE76E1D20BC
:104ABB00047FB09311E1BD6BF2263B8370FCDDDF0D
:104ACB00049CEDB04214452D2BADCE05BAF907E091
:104ADB001E0614162F72300761D0DF228E0172D2A0
:104AEB0005C11ECC714DD528AC4C114E6173283EBF
:104AFB004679CC6E229C58DBEACD2808710FD64341
:104B0B00209C0FD5EACA3E10A80E035C8001DEEE96
:104B1B00ED5D80866076D6025E035B5B07B754EB78
:104B2B0073500AD7300AA3008EB356B9C2828E2FA8
:104B3B0081C4246F053050045F000D2180F173692F
:104B4B00042970A734C0DAF4EE8104F1D9C58FAF14
:104B5B0058BC9E8348118C2A020E2F104BF1D9FDA5
:104B6B00F8001F2B1022C08F21FF900199FB108F93
:104B7B001DBAA810D81C1FF1FD28FD18A10BA47D90
:104B8B00FD0D40E5324CE3BA8F026A10DADA0CA85D
:104B9B009EEBFC2886280E325453724D15223C0096
:104BAB00B145A0C003050D1EF09050219C1858284C
:104BBB003C2441224EC2186BD6283C8810A3C11846
:104BCB002C246404A9F002C438254BB2B8903225CA
:104BDB00943C7258BC8419938533183080C8C4F93F
:104BEB00524C4D9E3D617CF8E013062C393E5DC660
:104BFB000C56B3504E980E60042B5302D09C1A4F98
:104C0B0054A8C49A156B079E43BC3C29AA94459E95
:104C1B009A3B4B94E802884B93AA2A7A4279D2B3F7
:104C2B000917AE35F374E982014358187FFE7409F6
:104C3B00C3F649872182B800C29B16D0E2C561E654
:104C4B00087A6255C564CA9385C21852A7AD8A21EA
:104C5B003EA108AA5387AFCF3061F486595BF509A3
:104C6B00D99A434A73E102A566FFE9C756B7F63CEA
:104C7B00FCA7D2EE4A6953D7A4FCA486A026C55B39
:104C8B0037095DE7DA2E56D4225FD51A5DBA568BFB
:104C9B0058ACCBC09E5D06168BD11904083001466B
:104CAB00220E41BE83479F3E3D1103D3DDBF5749C3
:104CBB00437DFA19305CA47CB826E580003372A0E2
:104CCB007FE0861FB0B20E0BF8A63B0F3D22B2F26F
:104CDB0064BE071251290829D2336295010F3C108B
:104CEB009A09D3A362BEF92678C00A605A40443EA3
:104CFB00F5D8C330AB0C52F24412F5A8B821040F0F
:104D0B00279841C4166EF802AB0C369CAF3E3608A2
:104D1B009461BA1886BCC0BA218F8C8132854452FB
:104D2B00698D029F8C01249008A0920009A2CC6887
:104D3B00490F0AFA458687B0882886847EC0E287A9
:104D4B008D0CD2B2A01848F8684B29351A133B16B4
:104D5B004C2A292B0F86C82318A6602AAA833D65E7
:104D6B00FA6034A180E8ACA740FF7DFA4026206AA8
:104D7B0082E54F168680AA372E2083EEC042318BF8
:104D8B00AC069EC460212918A01002062184F803EA
:104D9B0083D4BCB0AC2C4D6B92830BD3B8EAE0AC94
:104DAB0012FE0064A79AFC024CB3C89E308CB13C37
:104DBB002EED0010C720B30DAB5F2FAB690EB60AFB
:104DCB001D4205D960000D3664E5580C2FD4048BB9
:104DDB00AC35C650E3622739862D36A5BA60F8B6D6
:104DEB000B5967C5C0B126C2126332E16A80775591
:104DFB00188A0B6D975D9A31C00037529CAEBAEB97
:104E0B00B4C38E3BFDDE1301BC198AB860C71927EA
:104E1B00982F8702F8E53708233CACD13E200DCC08
:104E2B002080FF0064A0820C8268D2134F20DECF5B
:104E3B004334747410C29412446F065D062639C253
:104E4B000C2AA860620F677C60C41B4C48A9829B2C
:104E5B00578078808973A8E00219644C8F61F51E26
:104E6B008001911B169899668FFF076059E31A47CB
:104E7B004444E59061C60AC98664F01A490FBCC662
:104E8B00CAC9278D84E34C290792A06D0904D2323D
:104E9B00212CBCA4C0BA97C4F4E0028BDCCC92EFFB
:104EAB00033A8AE3CDBEC7C6EE073A4D4A292139EC
:104EBB00E4689485421CC8A9263D1D9589A8CBF2B0
:104ECB004454D0C663EA2C8F971C602627395AEAC4
:104EDB002DB01A2A85AF50B886BB540E66CADA6459
:104EEB0013728528C1D426224B6932789F85C15510
:104EFB000CBAF8E35CB400E929B130748D4C9039ED
:104F0B004A83E2D2AE520BF702E785FA768ECEBC1D
:104F1B00F2C20B5BEB70358C9EE6F0548EDFADADC1
:104F2B002DB2B04CD3CB54697BAF43901A50BDCA52
:104F3B00D39AB8C020F8B37CAB83AD9E328D175E8D
:104F4B009EF2404E1D62A18CC8FC8202DD2159816C
:104F5B0000163004622808E96940C63E24A21B985B
:104F6B00283D0FE043CCDE23B4FF1E8D28121C8896
:104F7B00CE762478B30084A068F8A1C0851C683372
:104F8B00F5CC20472919218054C61F0F2142065CFE
:104F9B008BD87968B082153C606337A3C20C7496CA
:104FAB004118B2F0435A3B10D20240854460C145D0
:104FBB00240C00D33620830C28F166200206228CA9
:104FCB000142E9AC21485AF1DA1A4616B6218D2D69
:104FDB000603D19B45D478B618C0C18D09119C41ED
:104FEB00A8D43602C049213F0858442272012445F7
:104FFB00E44D702C88077E80A5380632214693C17C
:10500B009C0EA725B2848E0540288A18E430B9D7A8
:10501B00C1C09194ABDCF486B0284309EA263291E7
:10502B000DA758E0800E740016CCD85C303ED00132
:10503B00521DEF7DA8838F0A8423085BB1CA56B13A
:10504B00DBC4F4E4F04A77D5A0093D090362FC32D6
:10505B00CCBFA48B27D46A0CF20633BFD860665C36
:10506B0043E082664E079DE621FF0B0A6749D76333
:10507B00541397F905B35698098DF7C89518B56071
:10508B008B35DF1A1FB7B8D22A656DE602DF0B83AB
:10509B00B966A59676568559FD8357646A5916F7F6
:1050AB003D670D0F89D9DCB223300D26EC823E43D0
:1050BB000F8D4454844C5C200805BB60240A2A1DC8
:1050CB0084A22707396BC17DA6038DAA9150044A90
:1050DB0048897570E89E8E82870A8850490CC16397
:1050EB0085171A313D3098DB48E1A3A1F08C280BD2
:1050FB0047C80044D503222BC0A0082F84A1152933
:10510B00868818A48847FDE1C01A2AEA202B08F5E7
:10511B0066572B0211DDE34515AA246C4622634228
:10512B00DE2610BD9D8D8D6E4C9BDFD63610821802
:10513B00F26F0FA18044E844911F58249082535B77
:10514B0021FF56543999E44886CC1B0C9602930FD9
:10515B00D880199FA4895E31991342F98419FB7485
:10516B00C63E4509A89A206508FF7248D44B02C574
:10517B004AA950257AB1148EFC6E55135C6E82775A
:10518B0076514D2F7F399B782606038C11D61C78D0
:10519B000205F4B972573C29CEF460905AC1C07223
:1051AB0032F28BD56E4A15CD78F1057DA69A4370F8
:1051BB0097C72A5C4D8558AC79CA611AC305D624AA
:1051CB00A77DAF945FAF86C9AA7E4A6692F02A8EFE
:1051DB003985124DF7C1EF029E904155314481F054
:1051EB004E54254B9D810BBE80081890A8082EC8E5
:1051FB000492961A45249A171A56A442CE1A408C3A
:10520B0084750C6458310F14674488906EE740F333
:10521B004D8F151A70DEF9C0208308064FCE8A74A5
:10522B004388C9483C91E0E887AE762313143525B3
:10523B00D0A8804E4938012B202C453DEA41057EF4
:10524B00481F183060C51EA2C2885CC0C503592711
:10525B002B64F46256B5BA85435E80045E2D501BF9
:10526B0005B7058390752025C9FF8817D3CA02BCE3
:10527B00C5E0707E44C8E0E25AC8BCE5CD4B6B4537
:10528B00934292D2146674E0922C08CA103009042F
:10529B0067B4040A507046E838C9930F7CD6063EB3
:1052AB00999C4C2AE9C8C47E122636585C544C454E
:1052BB00A914B94B1042F94330845006428F2A0F80
:1052CB00B6124371B6F92EBB04132F7A818D70E79A
:1052DB0050CBE52593973C09062D7DF2E8E351AAC7
:1052EB0052BDC4346F4AA74D79C1A0B5D12CCE7035
:1052FB00C9E59774E9CA2D989B0B63AA59932608A5
:10530B00B7B63CF1E561F00208D674E039C1F1653E
:10531B00680433AE9A74E035B59DCC84B903312C57
:10532B009CA1811A64D9044CEC1E955A41A3E6BD8D
:10533B0040057804229FCA02C42266804A3838E2AC
:10534B0010290D3D23E0E2DCCAE41E1A7A28673FE0
:10535B00EA590B8161D0090203DE5E3410862438D2
:10536B00032DB02CBF36BA0131FF681C840C3040C2
:10537B00C43DC2282210A1061A1F48C03B85C11488
:10538B0020DC4294928CC229415256BEC8471D1F45
:10539B00528F40BEC01BE336722D6DC16D0519498E
:1053AB00DD98BCA48EA0C4C724F8E392E49A9121A3
:1053BB001D00DF74CAB241DE0913672C0E06627042
:1053CB00A46C8EC214077CC05650B0014E82F2BF43
:1053DB00A5D744003E811C4EE62CD9BDC684197955
:1053EB0096D4ED60E91E77758527C11BD5A886C7B6
:1053FB002D2E04972D8B06E01C942BACB51447B3C4
:10540B00C9F2A6E9E0F7ACC2FC9927C0F34B395FB0
:10541B00A912DDD5B204A26EB5FBC852A8B82B2BCE
:10542B00BB5CA80914D22777395CC059F3EA9E38C4
:10543B00BB62EBAA944538B15E4C34FFB7AB5DF958
:10544B00D2EC35989E185AAB4D5411C83AE2854FA1
:10545B00C0509F222BCEA0E2150841C144C000686A
:10546B00885B3D56E0997D9196FF838A2522053511
:10547B00BBD9C91E4A42A6B520112698EF03AE2D03
:10548B00464FACFE0203382A8B739F12A13EA00835
:10549B0092887E14C7D35095881443E759314677C9
:1054AB00C64568CC8C012EE5D0036680D148DCA1C3
:1054BB00A0E98722308A108376376CFDE3899981C6
:1054CB00B5F203FE0FC849642C232D8901FE03B2EC
:1054DB003578A399931209F088AFC18295D392972F
:1054EB0028091258032991390444930B4808F25A9E
:1054FB00039348139DF39397A83AC77989A2183A57
:10550B009928840F281439B033136C9DA6EB00E453
:10551B0022973DA909475241A97B8A4D281DB6D830
:10552B003AAE730B18C8833AF83A512B156E513BB0
:10553B00D828BBB3E33CCFEB9ED4D826BE980B6FD9
:10554B004A8DCA58AD71C903BF380BBD2BBDDC5199
:10555B0001E4EA00DDD0ADA938BB60C8835589BB37
:10556B00F61184331CADD23836FF5EE28C44EB1E51
:10557B0018E489481384A2080659AA01EE798DF61E
:10558B00299431CCA74CC9AE26902D18A89FDDAA23
:10559B00ADACF8A70362B602D1A0A3B28202D0B61B
:1055AB000088BE0AE0BEDB9B3E0D7AC4FCCA2230EB
:1055BB00003E289A8048702A8B02865360B00BAA53
:1055CB002FEFCB0A9AF2901C0086FA722960200505
:1055DB00F4631A02D38A98828F0792374408049592
:1055EB008006F423A11C6801638804A97ABF846A2E
:1055FB0081AAC9AFFE00062E4A0173438F207A00A1
:10560B001AA8800188192F1AA9FE1B24A3B1AA215D
:10561B00711B92F30027F938EB183222ABC00380D1
:10562B009B84100812808828F11B0FC02A093C8824
:10563B000EB4409D0B390F202F452A89B8BA80A193
:10564B0083820E0886152441C21A97C8DA13E482A6
:10565B002C9E1006E759419998C111648686648681
:10566B00BD7A1D00008056D241FF7E7197CBFB3A6D
:10567B0059C19F3F94B4B3831F3BACB5CFFB35608F
:10568B007B42DAE0B3941014CCF08B2F9C94E7E0C0
:10569B003B2E440C59B19D45AB0139700D3594A689
:1056AB00784996E5B99669DA4218C8B5352C359321
:1056BB00E425782942DEDA267839437CD2C962E3C5
:1056CB001DFBC995B6888E0271BE7EA14588D9296E
:1056DB0028829194A0C482BA2F2930829E420383E0
:1056EB007BB825B2821580A20768816448860111B8
:1056FB002A6B9BC5658B105E5CA916F03095980FD5
:10570B0060804560B884E950B7F7A89AFA9028AC46
:10571B00F8441212226CC34B0029821F1031B5645E
:10572B000018508323519866F421F5A001EEE3177E
:10573B00FD4B096BE43F16692B8BF801B6691B23F4
:10574B00130816D0A3883092C11992B63A3DBCD239
:10575B009202099C2A83A31848AB218988918B4715
:10576B00B32A233840247BE4C0FF8CC8C798982CFD
:10577B0031F8A47F54944BD99C3D09AC9F40AE2B80
:10578B00E889388B1C4B1AC1C5599C4F8AC889FCB8
:10579B0003D3D9411EB4C38C448B9EEC9F00CA9F8C
:1057AB00D02249456343925C4257E3BBC5E11E5689
:1057BB003997A88C1EEACCB4E519C456DB8C5EC2B3
:1057CB00C39EE43C5AE39EB2731FCA8081CB33C2A3
:1057DB00E782173ACC3C6C9925E7EAC3E4C9AE05DE
:1057EB00DD95BA20B6BFCB41A98C0EB3C9377EF17C
:1057FB00A2F2C290FA13B08B9AB70BE8CA9841A8E1
:10580B00F5A381ECBB2211C9850989B116F083F48C
:10581B005045172013EE382A2A70B00A1599FD3817
:10582B00B80B4AC653DCA90E591A1880B77EB93883
:10583B00EF80B86B4B095B540FDE9B010F5945C4CE
:10584B00E44AF40086FB88A128FD810E8B81FB4A7C
:10585B00BFCA9C0F1D4820B9DC4CCE241319F88508
:10586B00311D24B2AA12236301FF30F94675ECB146
:10587B001F1329FE132B9A7B0816488838880816A5
:10588B00E8BFDA5C133619C7C12988D144133482B7
:10589B0023813A9C7B04CEC502B30E100328883AB1
:1058AB00E3848942B814E8DC934A1A0A5B39349EC4
:1058BB00E8801034C185648112840966C0131CCC46
:1058CB00CE8A2499EEAC09BC530B65CA9433749FF2
:1058DB00BDD3C27781972C7CD55C838DE74AB6DC30
:1058EB00118E3A0826BB381628801EDBB243EED940
:1058FB0096F2A90C155042FFBCCF9FF3BCE0F2B45B
:10590B008BD480333C066F008770080751F8065B19
:10591B00B0066EE0065A8885A4F4A5E2D0837C31EC
:10592B00007751863FAC0A5F40D77485C33C10BBF0
:10593B0099BC55BF7436887192217D0F95EA452B22
:10594B006801781331DCD3A0B27437FC3B0F2B40CA
:10595B00A9A552CBEE7BA29669817E7988C9FCD72B
:10596B001F3921187A381A5D80FF1AD35015990FF9
:10597B002B4001ADE0D0FC82811538382A1091867E
:10598B0033AF668401104252216202188A361A49DB
:10599B00CB4AC410CD04D3CF3C03825A92B711C06B
:1059AB001F384DD4DC0ED614A90D749BB27A932DEF
:1059BB00B00E12C0120F10882361013D25811F907C
:1059CB00ABBB42080E34C76D2C08A1DD0EBB3A12DF
:1059DB00B1DAB99738B40F883AAD8DC198F82C4D20
:1059EB00650A4AB580D6909F4DFA93A9630101C809
:1059FB0089AB93833298D0ED7C8FAEC30CC4C8A611
:105A0B0066BD48CE7B57C793A55DD93A3B248ED054
:105A1B00E827D401495721361FFC55DB125035249A
:105A2B00BD4F93A5C00D0DF2740B28801761BB4FB2
:105A3B00DDF9563DA8866AC8065768865828854FF3
:105A4B00300553A0050485D5AA7083EA30807731E1
:105A5B00CF8FAC8C27808249F2C24AA8AC937C8F43
:105A6B0066A3009239C414AAD7FF0B5A520FC15721
:105A7B00CCB4227E25197B2DCB9CE1997D03860C22
:105A8B00D2A917C58AAAB1821B98AA898B3018B8DC
:105A9B00841FE818E9855828CA018175BE874D090E
:105AAB006AD48AF9120F615409A4E1B622E82821BD
:105ABB002A025070D2278D22130B3160609A3E0858
:105ACB00921C7D38F100AA148159CE54A3ED5023BA
